{
  "contractName": "Authorizable",
  "abi": [
    {
      "inputs": [],
      "stateMutability": "nonpayable",
      "type": "constructor"
    },
    {
      "inputs": [
        {
          "internalType": "address",
          "name": "",
          "type": "address"
        }
      ],
      "name": "authorized",
      "outputs": [
        {
          "internalType": "bool",
          "name": "",
          "type": "bool"
        }
      ],
      "stateMutability": "view",
      "type": "function"
    },
    {
      "inputs": [],
      "name": "owner",
      "outputs": [
        {
          "internalType": "address",
          "name": "",
          "type": "address"
        }
      ],
      "stateMutability": "view",
      "type": "function"
    },
    {
      "inputs": [
        {
          "internalType": "address",
          "name": "who",
          "type": "address"
        }
      ],
      "name": "isAuthorized",
      "outputs": [
        {
          "internalType": "bool",
          "name": "",
          "type": "bool"
        }
      ],
      "stateMutability": "view",
      "type": "function"
    },
    {
      "inputs": [
        {
          "internalType": "address",
          "name": "who",
          "type": "address"
        }
      ],
      "name": "authorize",
      "outputs": [],
      "stateMutability": "nonpayable",
      "type": "function"
    },
    {
      "inputs": [
        {
          "internalType": "address",
          "name": "who",
          "type": "address"
        }
      ],
      "name": "deauthorize",
      "outputs": [],
      "stateMutability": "nonpayable",
      "type": "function"
    },
    {
      "inputs": [
        {
          "internalType": "address",
          "name": "who",
          "type": "address"
        }
      ],
      "name": "setOwner",
      "outputs": [],
      "stateMutability": "nonpayable",
      "type": "function"
    }
  ],
  "bytecode": "0x608060405234801561001057600080fd5b50336000806101000a81548173ffffffffffffffffffffffffffffffffffffffff021916908373ffffffffffffffffffffffffffffffffffffffff16021790555061060f806100606000396000f3fe608060405234801561001057600080fd5b50600436106100625760003560e01c806313af40351461006757806327c97fa5146100835780638da5cb5b1461009f578063b6a5d7de146100bd578063b9181611146100d9578063fe9fbb8014610109575b600080fd5b610081600480360381019061007c9190610496565b610139565b005b61009d60048036038101906100989190610496565b61020a565b005b6100a76102f3565b6040516100b4919061051d565b60405180910390f35b6100d760048036038101906100d29190610496565b610317565b005b6100f360048036038101906100ee9190610496565b6103b1565b6040516101009190610538565b60405180910390f35b610123600480360381019061011e9190610496565b6103d1565b6040516101309190610538565b60405180910390f35b60008054906101000a900473ffffffffffffffffffffffffffffffffffffffff1673ffffffffffffffffffffffffffffffffffffffff163373ffffffffffffffffffffffffffffffffffffffff16146101c7576040517f08c379a00000000000000000000000000000000000000000000000000000000081526004016101be90610553565b60405180910390fd5b806000806101000a81548173ffffffffffffffffffffffffffffffffffffffff021916908373ffffffffffffffffffffffffffffffffffffffff16021790555050565b60008054906101000a900473ffffffffffffffffffffffffffffffffffffffff1673ffffffffffffffffffffffffffffffffffffffff163373ffffffffffffffffffffffffffffffffffffffff1614610298576040517f08c379a000000000000000000000000000000000000000000000000000000000815260040161028f90610553565b60405180910390fd5b6000600160008373ffffffffffffffffffffffffffffffffffffffff1673ffffffffffffffffffffffffffffffffffffffff16815260200190815260200160002060006101000a81548160ff02191690831515021790555050565b60008054906101000a900473ffffffffffffffffffffffffffffffffffffffff1681565b60008054906101000a900473ffffffffffffffffffffffffffffffffffffffff1673ffffffffffffffffffffffffffffffffffffffff163373ffffffffffffffffffffffffffffffffffffffff16146103a5576040517f08c379a000000000000000000000000000000000000000000000000000000000815260040161039c90610553565b60405180910390fd5b6103ae81610427565b50565b60016020528060005260406000206000915054906101000a900460ff1681565b6000600160008373ffffffffffffffffffffffffffffffffffffffff1673ffffffffffffffffffffffffffffffffffffffff16815260200190815260200160002060009054906101000a900460ff169050919050565b60018060008373ffffffffffffffffffffffffffffffffffffffff1673ffffffffffffffffffffffffffffffffffffffff16815260200190815260200160002060006101000a81548160ff02191690831515021790555050565b600081359050610490816105c2565b92915050565b6000602082840312156104a857600080fd5b60006104b684828501610481565b91505092915050565b6104c881610584565b82525050565b6104d781610596565b82525050565b60006104ea601083610573565b91507f53656e646572206e6f74206f776e6572000000000000000000000000000000006000830152602082019050919050565b600060208201905061053260008301846104bf565b92915050565b600060208201905061054d60008301846104ce565b92915050565b6000602082019050818103600083015261056c816104dd565b9050919050565b600082825260208201905092915050565b600061058f826105a2565b9050919050565b60008115159050919050565b600073ffffffffffffffffffffffffffffffffffffffff82169050919050565b6105cb81610584565b81146105d657600080fd5b5056fea26469706673582212202bc944bdc83c92d7e3fedd7dfd311a64e06ea875f353c9371cb4d2eb190827b164736f6c63430008000033",
  "immutableReferences": {},
  "source": "// SPDX-License-Identifier: Apache-2.0\r\npragma solidity >=0.7.0;\r\n\r\ncontract Authorizable {\r\n    // This contract allows a flexible authorization scheme\r\n\r\n    // The owner who can change authorization status\r\n    address public owner;\r\n    // A mapping from an address to its authorization status\r\n    mapping(address => bool) public authorized;\r\n\r\n    /// @dev We set the deployer to the owner\r\n    constructor() {\r\n        owner = msg.sender;\r\n    }\r\n\r\n    /// @dev This modifier checks if the msg.sender is the owner\r\n    modifier onlyOwner() {\r\n        require(msg.sender == owner, \"Sender not owner\");\r\n        _;\r\n    }\r\n\r\n    /// @dev This modifier checks if an address is authorized\r\n    modifier onlyAuthorized() {\r\n        require(isAuthorized(msg.sender), \"Sender not Authorized\");\r\n        _;\r\n    }\r\n\r\n    /// @dev Returns true if an address is authorized\r\n    /// @param who the address to check\r\n    /// @return true if authorized false if not\r\n    function isAuthorized(address who) public view returns (bool) {\r\n        return authorized[who];\r\n    }\r\n\r\n    /// @dev Privileged function authorize an address\r\n    /// @param who the address to authorize\r\n    function authorize(address who) external onlyOwner() {\r\n        _authorize(who);\r\n    }\r\n\r\n    /// @dev Privileged function to de authorize an address\r\n    /// @param who The address to remove authorization from\r\n    function deauthorize(address who) external onlyOwner() {\r\n        authorized[who] = false;\r\n    }\r\n\r\n    /// @dev Function to change owner\r\n    /// @param who The new owner address\r\n    function setOwner(address who) public onlyOwner() {\r\n        owner = who;\r\n    }\r\n\r\n    /// @dev Inheritable function which authorizes someone\r\n    /// @param who the address to authorize\r\n    function _authorize(address who) internal {\r\n        authorized[who] = true;\r\n    }\r\n}\r\n",
  "sourcePath": "/f/BlockChain/conflux/contract/Lfi-Vault/contracts/libraries/Authorizable.sol",
  "compiler": {
    "name": "solc",
    "version": "0.8.0+commit.c7dfd78e.Emscripten.clang"
  },
  "schemaVersion": "3.3.4",
  "updatedAt": "2021-08-29T16:51:01.075Z",
  "devdoc": {
    "kind": "dev",
    "methods": {
      "authorize(address)": {
        "details": "Privileged function authorize an address",
        "params": {
          "who": "the address to authorize"
        }
      },
      "constructor": {
        "details": "We set the deployer to the owner"
      },
      "deauthorize(address)": {
        "details": "Privileged function to de authorize an address",
        "params": {
          "who": "The address to remove authorization from"
        }
      },
      "isAuthorized(address)": {
        "details": "Returns true if an address is authorized",
        "params": {
          "who": "the address to check"
        },
        "returns": {
          "_0": "true if authorized false if not"
        }
      },
      "setOwner(address)": {
        "details": "Function to change owner",
        "params": {
          "who": "The new owner address"
        }
      }
    },
    "version": 1
  },
  "userdoc": {
    "kind": "user",
    "methods": {},
    "version": 1
  }
}