{
  "contractName": "DateString",
  "abi": [
    {
      "inputs": [],
      "name": "OFFSET19700101",
      "outputs": [
        {
          "internalType": "int256",
          "name": "",
          "type": "int256"
        }
      ],
      "stateMutability": "view",
      "type": "function"
    },
    {
      "inputs": [],
      "name": "SECONDS_PER_DAY",
      "outputs": [
        {
          "internalType": "uint256",
          "name": "",
          "type": "uint256"
        }
      ],
      "stateMutability": "view",
      "type": "function"
    },
    {
      "inputs": [],
      "name": "SECONDS_PER_HOUR",
      "outputs": [
        {
          "internalType": "uint256",
          "name": "",
          "type": "uint256"
        }
      ],
      "stateMutability": "view",
      "type": "function"
    },
    {
      "inputs": [],
      "name": "SECONDS_PER_MINUTE",
      "outputs": [
        {
          "internalType": "uint256",
          "name": "",
          "type": "uint256"
        }
      ],
      "stateMutability": "view",
      "type": "function"
    }
  ],
  "bytecode": "0x611836610053600b82828239805160001a607314610046577f4e487b7100000000000000000000000000000000000000000000000000000000600052600060045260246000fd5b30600052607381538281f3fe730000000000000000000000000000000000000000301460806040526004361061006c5760003560e01c80634df861261461007157806374f0314f1461008f578063a3f144ae146100ad578063bcb4f29a146100cb578063e9556430146100f4578063f40ce94614610112575b600080fd5b61007961013b565b6040516100869190611292565b60405180910390f35b610097610141565b6040516100a49190611292565b60405180910390f35b6100b5610148565b6040516100c29190611257565b60405180910390f35b8180156100d757600080fd5b506100f260048036038101906100ed91906111bd565b61014f565b005b6100fc61015d565b6040516101099190611292565b60405180910390f35b81801561011e57600080fd5b5061013960048036038101906101349190611156565b610162565b005b610e1081565b6201518081565b62253d8c81565b6101598282610172565b5050565b603c81565b61016d838383610b4d565b505050565b60008190506000806000610193620151808761018e9190611454565b610d33565b9250925092506000600a826101a89190611454565b905084817f300000000000000000000000000000000000000000000000000000000000000060f81c6101da91906113b3565b60f81b90808054806101eb9061166a565b80601f81146101f95761020f565b83600052602060002060ff1984168155603f9350505b506002820183556001810192505050600190038154600116156102415790600052602060002090602091828204019190065b909190919091601f036101000a81548160ff021916907f0100000000000000000000000000000000000000000000000000000000000000840402179055506000600a8361028e91906116e5565b905085817f300000000000000000000000000000000000000000000000000000000000000060f81c6102c091906113b3565b60f81b90808054806102d19061166a565b80601f81146102df576102f5565b83600052602060002060ff1984168155603f9350505b506002820183556001810192505050600190038154600116156103275790600052602060002090602091828204019190065b909190919091601f036101000a81548160ff021916907f010000000000000000000000000000000000000000000000000000000000000084040217905550505060018214156103e1576103dc847f4a000000000000000000000000000000000000000000000000000000000000007f41000000000000000000000000000000000000000000000000000000000000007f4e00000000000000000000000000000000000000000000000000000000000000610ed2565b610965565b600282141561045b57610456847f46000000000000000000000000000000000000000000000000000000000000007f45000000000000000000000000000000000000000000000000000000000000007f4200000000000000000000000000000000000000000000000000000000000000610ed2565b610964565b60038214156104d5576104d0847f4d000000000000000000000000000000000000000000000000000000000000007f41000000000000000000000000000000000000000000000000000000000000007f5200000000000000000000000000000000000000000000000000000000000000610ed2565b610963565b600482141561054f5761054a847f41000000000000000000000000000000000000000000000000000000000000007f50000000000000000000000000000000000000000000000000000000000000007f5200000000000000000000000000000000000000000000000000000000000000610ed2565b610962565b60058214156105c9576105c4847f4d000000000000000000000000000000000000000000000000000000000000007f41000000000000000000000000000000000000000000000000000000000000007f5900000000000000000000000000000000000000000000000000000000000000610ed2565b610961565b60068214156106435761063e847f4a000000000000000000000000000000000000000000000000000000000000007f55000000000000000000000000000000000000000000000000000000000000007f4e00000000000000000000000000000000000000000000000000000000000000610ed2565b610960565b60078214156106bd576106b8847f4a000000000000000000000000000000000000000000000000000000000000007f55000000000000000000000000000000000000000000000000000000000000007f4c00000000000000000000000000000000000000000000000000000000000000610ed2565b61095f565b600882141561073757610732847f41000000000000000000000000000000000000000000000000000000000000007f55000000000000000000000000000000000000000000000000000000000000007f4700000000000000000000000000000000000000000000000000000000000000610ed2565b61095e565b60098214156107b1576107ac847f53000000000000000000000000000000000000000000000000000000000000007f45000000000000000000000000000000000000000000000000000000000000007f5000000000000000000000000000000000000000000000000000000000000000610ed2565b61095d565b600a82141561082b57610826847f4f000000000000000000000000000000000000000000000000000000000000007f43000000000000000000000000000000000000000000000000000000000000007f5400000000000000000000000000000000000000000000000000000000000000610ed2565b61095c565b600b8214156108a5576108a0847f4e000000000000000000000000000000000000000000000000000000000000007f4f000000000000000000000000000000000000000000000000000000000000007f5600000000000000000000000000000000000000000000000000000000000000610ed2565b61095b565b600c82141561091f5761091a847f44000000000000000000000000000000000000000000000000000000000000007f45000000000000000000000000000000000000000000000000000000000000007f4300000000000000000000000000000000000000000000000000000000000000610ed2565b61095a565b6040517f08c379a000000000000000000000000000000000000000000000000000000000815260040161095190611272565b60405180910390fd5b5b5b5b5b5b5b5b5b5b5b5b600060648461097491906116e5565b90506000600a826109859190611454565b905085817f300000000000000000000000000000000000000000000000000000000000000060f81c6109b791906113b3565b60f81b90808054806109c89061166a565b80601f81146109d6576109ec565b83600052602060002060ff1984168155603f9350505b50600282018355600181019250505060019003815460011615610a1e5790600052602060002090602091828204019190065b909190919091601f036101000a81548160ff021916907f0100000000000000000000000000000000000000000000000000000000000000840402179055506000600a83610a6b91906116e5565b905086817f300000000000000000000000000000000000000000000000000000000000000060f81c610a9d91906113b3565b60f81b9080805480610aae9061166a565b80601f8114610abc57610ad2565b83600052602060002060ff1984168155603f9350505b50600282018355600181019250505060019003815460011615610b045790600052602060002090602091828204019190065b909190919091601f036101000a81548160ff021916907f010000000000000000000000000000000000000000000000000000000000000084040217905550505050505050505050565b6000839050600082905060005b8251811015610c5d5781838281518110610b9d577f4e487b7100000000000000000000000000000000000000000000000000000000600052603260045260246000fd5b602001015160f81c60f81b9080805480610bb69061166a565b80601f8114610bc457610bda565b83600052602060002060ff1984168155603f9350505b50600282018355600181019250505060019003815460011615610c0c5790600052602060002090602091828204019190065b909190919091601f036101000a81548160ff021916907f0100000000000000000000000000000000000000000000000000000000000000840402179055508080610c559061169c565b915050610b5a565b50807f2d000000000000000000000000000000000000000000000000000000000000009080805480610c8e9061166a565b80601f8114610c9c57610cb2565b83600052602060002060ff1984168155603f9350505b50600282018355600181019250505060019003815460011615610ce45790600052602060002090602091828204019190065b909190919091601f036101000a81548160ff021916907f010000000000000000000000000000000000000000000000000000000000000084040217905550610d2c848461014f565b5050505050565b600080600080849050600062253d8c62010bd983610d51919061131f565b610d5b919061131f565b9050600062023ab1826004610d709190611485565b610d7a91906113ea565b9050600460038262023ab1610d8f9190611485565b610d99919061131f565b610da391906113ea565b82610dae919061159c565b9150600062164b09600184610dc3919061131f565b610fa0610dd09190611485565b610dda91906113ea565b9050601f6004826105b5610dee9190611485565b610df891906113ea565b84610e03919061159c565b610e0d919061131f565b9250600061098f846050610e219190611485565b610e2b91906113ea565b9050600060508261098f610e3f9190611485565b610e4991906113ea565b85610e54919061159c565b9050600b82610e6391906113ea565b945084600c610e729190611485565b600283610e7f919061131f565b610e89919061159c565b91508483603186610e9a919061159c565b6064610ea69190611485565b610eb0919061131f565b610eba919061131f565b92508298508197508096505050505050509193909250565b83839080805480610ee29061166a565b80601f8114610ef057610f06565b83600052602060002060ff1984168155603f9350505b50600282018355600181019250505060019003815460011615610f385790600052602060002090602091828204019190065b909190919091601f036101000a81548160ff021916907f01000000000000000000000000000000000000000000000000000000000000008404021790555083829080805480610f869061166a565b80601f8114610f9457610faa565b83600052602060002060ff1984168155603f9350505b50600282018355600181019250505060019003815460011615610fdc5790600052602060002090602091828204019190065b909190919091601f036101000a81548160ff021916907f0100000000000000000000000000000000000000000000000000000000000000840402179055508381908080548061102a9061166a565b80601f81146110385761104e565b83600052602060002060ff1984168155603f9350505b506002820183556001810192505050600190038154600116156110805790600052602060002090602091828204019190065b909190919091601f036101000a81548160ff021916907f01000000000000000000000000000000000000000000000000000000000000008404021790555050505050565b60006110d76110d2846112de565b6112ad565b9050828152602081018484840111156110ef57600080fd5b6110fa84828561165b565b509392505050565b600082601f83011261111357600080fd5b81356111238482602086016110c4565b91505092915050565b60008135905061113b816117d2565b92915050565b600081359050611150816117e9565b92915050565b60008060006060848603121561116b57600080fd5b600084013567ffffffffffffffff81111561118557600080fd5b61119186828701611102565b93505060206111a286828701611141565b92505060406111b38682870161112c565b9150509250925092565b600080604083850312156111d057600080fd5b60006111de85828601611141565b92505060206111ef8582860161112c565b9150509250929050565b61120281611630565b82525050565b600061121560138361130e565b91507f64617465206465636f64696e67206572726f72000000000000000000000000006000830152602082019050919050565b61125181611644565b82525050565b600060208201905061126c60008301846111f9565b92915050565b6000602082019050818103600083015261128b81611208565b9050919050565b60006020820190506112a76000830184611248565b92915050565b6000604051905081810181811067ffffffffffffffff821117156112d4576112d36117a3565b5b8060405250919050565b600067ffffffffffffffff8211156112f9576112f86117a3565b5b601f19601f8301169050602081019050919050565b600082825260208201905092915050565b600061132a82611630565b915061133583611630565b9250817f7fffffffffffffffffffffffffffffffffffffffffffffffffffffffffffffff038313600083121516156113705761136f611716565b5b817f80000000000000000000000000000000000000000000000000000000000000000383126000831216156113a8576113a7611716565b5b828201905092915050565b60006113be8261164e565b91506113c98361164e565b92508260ff038211156113df576113de611716565b5b828201905092915050565b60006113f582611630565b915061140083611630565b9250826114105761140f611745565b5b600160000383147f80000000000000000000000000000000000000000000000000000000000000008314161561144957611448611716565b5b828205905092915050565b600061145f82611644565b915061146a83611644565b92508261147a57611479611745565b5b828204905092915050565b600061149082611630565b915061149b83611630565b9250827f7fffffffffffffffffffffffffffffffffffffffffffffffffffffffffffffff04821160008413600084131616156114da576114d9611716565b5b817f8000000000000000000000000000000000000000000000000000000000000000058312600084126000841316161561151757611516611716565b5b827f8000000000000000000000000000000000000000000000000000000000000000058212600084136000841216161561155457611553611716565b5b827f7fffffffffffffffffffffffffffffffffffffffffffffffffffffffffffffff058212600084126000841216161561159157611590611716565b5b828202905092915050565b60006115a782611630565b91506115b283611630565b9250827f8000000000000000000000000000000000000000000000000000000000000000018212600084121516156115ed576115ec611716565b5b827f7fffffffffffffffffffffffffffffffffffffffffffffffffffffffffffffff01821360008412161561162557611624611716565b5b828203905092915050565b6000819050919050565b6000819050919050565b6000819050919050565b600060ff82169050919050565b82818337600083830152505050565b6000600282049050600182168061168257607f821691505b6020821081141561169657611695611774565b5b50919050565b60006116a782611644565b91507fffffffffffffffffffffffffffffffffffffffffffffffffffffffffffffffff8214156116da576116d9611716565b5b600182019050919050565b60006116f082611644565b91506116fb83611644565b92508261170b5761170a611745565b5b828206905092915050565b7f4e487b7100000000000000000000000000000000000000000000000000000000600052601160045260246000fd5b7f4e487b7100000000000000000000000000000000000000000000000000000000600052601260045260246000fd5b7f4e487b7100000000000000000000000000000000000000000000000000000000600052602260045260246000fd5b7f4e487b7100000000000000000000000000000000000000000000000000000000600052604160045260246000fd5b6117db8161163a565b81146117e657600080fd5b50565b6117f281611644565b81146117fd57600080fd5b5056fea2646970667358221220f40fada315b38100f89fff9f4db3399097ac8a2b7ba54c808b945faf2334bb2364736f6c63430008000033",
  "immutableReferences": {},
  "source": "// SPDX-License-Identifier: Apache-2.0\r\npragma solidity ^0.8.0;\r\n\r\nlibrary DateString {\r\n    uint256 public constant SECONDS_PER_DAY = 24 * 60 * 60;\r\n    uint256 public constant SECONDS_PER_HOUR = 60 * 60;\r\n    uint256 public constant SECONDS_PER_MINUTE = 60;\r\n    int256 public constant OFFSET19700101 = 2440588;\r\n\r\n    // This function was forked from https://github.com/bokkypoobah/BokkyPooBahsDateTimeLibrary\r\n    // ------------------------------------------------------------------------\r\n    // Calculate year/month/day from the number of days since 1970/01/01 using\r\n    // the date conversion algorithm from\r\n    //   http://aa.usno.navy.mil/faq/docs/JD_Formula.php\r\n    // and adding the offset 2440588 so that 1970/01/01 is day 0\r\n    //\r\n    // int L = days + 68569 + offset\r\n    // int N = 4 * L / 146097\r\n    // L = L - (146097 * N + 3) / 4\r\n    // year = 4000 * (L + 1) / 1461001\r\n    // L = L - 1461 * year / 4 + 31\r\n    // month = 80 * L / 2447\r\n    // dd = L - 2447 * month / 80\r\n    // L = month / 11\r\n    // month = month + 2 - 12 * L\r\n    // year = 100 * (N - 49) + year + L\r\n    // ------------------------------------------------------------------------\r\n    // solhint-disable-next-line private-vars-leading-underscore\r\n    function _daysToDate(uint256 _days)\r\n        internal\r\n        pure\r\n        returns (\r\n            uint256 year,\r\n            uint256 month,\r\n            uint256 day\r\n        )\r\n    {\r\n        int256 __days = int256(_days);\r\n        // solhint-disable-next-line var-name-mixedcase\r\n        int256 L = __days + 68569 + OFFSET19700101;\r\n        // solhint-disable-next-line var-name-mixedcase\r\n        int256 N = (4 * L) / 146097;\r\n        L = L - (146097 * N + 3) / 4;\r\n        int256 _year = (4000 * (L + 1)) / 1461001;\r\n        L = L - (1461 * _year) / 4 + 31;\r\n        int256 _month = (80 * L) / 2447;\r\n        int256 _day = L - (2447 * _month) / 80;\r\n        L = _month / 11;\r\n        _month = _month + 2 - 12 * L;\r\n        _year = 100 * (N - 49) + _year + L;\r\n\r\n        year = uint256(_year);\r\n        month = uint256(_month);\r\n        day = uint256(_day);\r\n    }\r\n\r\n    /// @dev Writes a prefix and an timestamp encoding to an output storage location\r\n    ///      This function is designed to only work with ASCII encoded strings. No emojis please.\r\n    /// @param _prefix The string to write before the timestamp\r\n    /// @param _timestamp the timestamp to encode and store\r\n    /// @param _output the storage location of the output string\r\n    /// NOTE - Current cost ~90k if gas is problem revisit and use assembly to remove the extra\r\n    ///        sstore s.\r\n    function encodeAndWriteTimestamp(\r\n        string memory _prefix,\r\n        uint256 _timestamp,\r\n        string storage _output\r\n    ) external {\r\n        _encodeAndWriteTimestamp(_prefix, _timestamp, _output);\r\n    }\r\n\r\n    /// @dev Sn internal version of the above function 'encodeAndWriteTimestamp'\r\n    // solhint-disable-next-line\r\n    function _encodeAndWriteTimestamp(\r\n        string memory _prefix,\r\n        uint256 _timestamp,\r\n        string storage _output\r\n    ) internal {\r\n        // Cast the prefix string to a byte array\r\n        bytes memory bytePrefix = bytes(_prefix);\r\n        // Cast the output string to a byte array\r\n        bytes storage bytesOutput = bytes(_output);\r\n        // Copy the bytes from the prefix onto the byte array\r\n        // NOTE - IF PREFIX CONTAINS NON-ASCII CHARS THIS WILL CAUSE AN INCORRECT STRING LENGTH\r\n        for (uint256 i = 0; i < bytePrefix.length; i++) {\r\n            bytesOutput.push(bytePrefix[i]);\r\n        }\r\n        // Add a '-' to the string to separate the prefix from the the date\r\n        bytesOutput.push(bytes1(\"-\"));\r\n        // Add the date string\r\n        timestampToDateString(_timestamp, _output);\r\n    }\r\n\r\n    /// @dev Converts a unix second encoded timestamp to a date format (year, month, day)\r\n    ///      then writes the string encoding of that to the output pointer.\r\n    /// @param _timestamp the unix seconds timestamp\r\n    /// @param _outputPointer the storage pointer to change.\r\n    function timestampToDateString(\r\n        uint256 _timestamp,\r\n        string storage _outputPointer\r\n    ) public {\r\n        _timestampToDateString(_timestamp, _outputPointer);\r\n    }\r\n\r\n    /// @dev Sn internal version of the above function 'timestampToDateString'\r\n    // solhint-disable-next-line\r\n    function _timestampToDateString(\r\n        uint256 _timestamp,\r\n        string storage _outputPointer\r\n    ) internal {\r\n        // We pretend the string is a 'bytes' only push UTF8 encodings to it\r\n        bytes storage output = bytes(_outputPointer);\r\n        // First we get the day month and year\r\n        (uint256 year, uint256 month, uint256 day) = _daysToDate(\r\n            _timestamp / SECONDS_PER_DAY\r\n        );\r\n        // First we add encoded day to the string\r\n        {\r\n            // Round out the second digit\r\n            uint256 firstDigit = day / 10;\r\n            // add it to the encoded byte for '0'\r\n            output.push(bytes1(uint8(bytes1(\"0\")) + uint8(firstDigit)));\r\n            // Extract the second digit\r\n            uint256 secondDigit = day % 10;\r\n            // add it to the string\r\n            output.push(bytes1(uint8(bytes1(\"0\")) + uint8(secondDigit)));\r\n        }\r\n        // Next we encode the month string and add it\r\n        if (month == 1) {\r\n            stringPush(output, \"J\", \"A\", \"N\");\r\n        } else if (month == 2) {\r\n            stringPush(output, \"F\", \"E\", \"B\");\r\n        } else if (month == 3) {\r\n            stringPush(output, \"M\", \"A\", \"R\");\r\n        } else if (month == 4) {\r\n            stringPush(output, \"A\", \"P\", \"R\");\r\n        } else if (month == 5) {\r\n            stringPush(output, \"M\", \"A\", \"Y\");\r\n        } else if (month == 6) {\r\n            stringPush(output, \"J\", \"U\", \"N\");\r\n        } else if (month == 7) {\r\n            stringPush(output, \"J\", \"U\", \"L\");\r\n        } else if (month == 8) {\r\n            stringPush(output, \"A\", \"U\", \"G\");\r\n        } else if (month == 9) {\r\n            stringPush(output, \"S\", \"E\", \"P\");\r\n        } else if (month == 10) {\r\n            stringPush(output, \"O\", \"C\", \"T\");\r\n        } else if (month == 11) {\r\n            stringPush(output, \"N\", \"O\", \"V\");\r\n        } else if (month == 12) {\r\n            stringPush(output, \"D\", \"E\", \"C\");\r\n        } else {\r\n            revert(\"date decoding error\");\r\n        }\r\n        // We take the last two digits of the year\r\n        // Hopefully that's enough\r\n        {\r\n            uint256 lastDigits = year % 100;\r\n            // Round out the second digit\r\n            uint256 firstDigit = lastDigits / 10;\r\n            // add it to the encoded byte for '0'\r\n            output.push(bytes1(uint8(bytes1(\"0\")) + uint8(firstDigit)));\r\n            // Extract the second digit\r\n            uint256 secondDigit = lastDigits % 10;\r\n            // add it to the string\r\n            output.push(bytes1(uint8(bytes1(\"0\")) + uint8(secondDigit)));\r\n        }\r\n    }\r\n\r\n    function stringPush(\r\n        bytes storage output,\r\n        bytes1 data1,\r\n        bytes1 data2,\r\n        bytes1 data3\r\n    ) internal {\r\n        output.push(data1);\r\n        output.push(data2);\r\n        output.push(data3);\r\n    }\r\n}\r\n",
  "sourcePath": "/f/BlockChain/conflux/contract/Lfi-Vault/contracts/libraries/DateString.sol",
  "compiler": {
    "name": "solc",
    "version": "0.8.0+commit.c7dfd78e.Emscripten.clang"
  },
  "schemaVersion": "3.3.4",
  "updatedAt": "2021-08-29T16:51:01.087Z",
  "devdoc": {
    "kind": "dev",
    "methods": {
      "encodeAndWriteTimestamp(string,uint256,string storage)": {
        "details": "Writes a prefix and an timestamp encoding to an output storage location      This function is designed to only work with ASCII encoded strings. No emojis please.",
        "params": {
          "_output": "the storage location of the output string NOTE - Current cost ~90k if gas is problem revisit and use assembly to remove the extra        sstore s.",
          "_prefix": "The string to write before the timestamp",
          "_timestamp": "the timestamp to encode and store"
        }
      },
      "timestampToDateString(uint256,string storage)": {
        "details": "Converts a unix second encoded timestamp to a date format (year, month, day)      then writes the string encoding of that to the output pointer.",
        "params": {
          "_outputPointer": "the storage pointer to change.",
          "_timestamp": "the unix seconds timestamp"
        }
      }
    },
    "version": 1
  },
  "userdoc": {
    "kind": "user",
    "methods": {},
    "version": 1
  }
}