{
  "contractName": "USDA",
  "abi": [
    {
      "inputs": [],
      "stateMutability": "nonpayable",
      "type": "constructor"
    },
    {
      "anonymous": false,
      "inputs": [
        {
          "indexed": true,
          "internalType": "address",
          "name": "owner",
          "type": "address"
        },
        {
          "indexed": true,
          "internalType": "address",
          "name": "spender",
          "type": "address"
        },
        {
          "indexed": false,
          "internalType": "uint256",
          "name": "value",
          "type": "uint256"
        }
      ],
      "name": "Approval",
      "type": "event"
    },
    {
      "anonymous": false,
      "inputs": [
        {
          "indexed": true,
          "internalType": "address",
          "name": "from",
          "type": "address"
        },
        {
          "indexed": true,
          "internalType": "address",
          "name": "to",
          "type": "address"
        },
        {
          "indexed": false,
          "internalType": "uint256",
          "name": "value",
          "type": "uint256"
        }
      ],
      "name": "Transfer",
      "type": "event"
    },
    {
      "inputs": [],
      "name": "DOMAIN_SEPARATOR",
      "outputs": [
        {
          "internalType": "bytes32",
          "name": "",
          "type": "bytes32"
        }
      ],
      "stateMutability": "view",
      "type": "function"
    },
    {
      "inputs": [],
      "name": "PERMIT_TYPEHASH",
      "outputs": [
        {
          "internalType": "bytes32",
          "name": "",
          "type": "bytes32"
        }
      ],
      "stateMutability": "view",
      "type": "function"
    },
    {
      "inputs": [
        {
          "internalType": "address",
          "name": "",
          "type": "address"
        },
        {
          "internalType": "address",
          "name": "",
          "type": "address"
        }
      ],
      "name": "allowance",
      "outputs": [
        {
          "internalType": "uint256",
          "name": "",
          "type": "uint256"
        }
      ],
      "stateMutability": "view",
      "type": "function"
    },
    {
      "inputs": [
        {
          "internalType": "address",
          "name": "account",
          "type": "address"
        },
        {
          "internalType": "uint256",
          "name": "amount",
          "type": "uint256"
        }
      ],
      "name": "approve",
      "outputs": [
        {
          "internalType": "bool",
          "name": "",
          "type": "bool"
        }
      ],
      "stateMutability": "nonpayable",
      "type": "function"
    },
    {
      "inputs": [
        {
          "internalType": "address",
          "name": "",
          "type": "address"
        }
      ],
      "name": "balanceOf",
      "outputs": [
        {
          "internalType": "uint256",
          "name": "",
          "type": "uint256"
        }
      ],
      "stateMutability": "view",
      "type": "function"
    },
    {
      "inputs": [],
      "name": "decimals",
      "outputs": [
        {
          "internalType": "uint8",
          "name": "",
          "type": "uint8"
        }
      ],
      "stateMutability": "view",
      "type": "function"
    },
    {
      "inputs": [],
      "name": "name",
      "outputs": [
        {
          "internalType": "string",
          "name": "",
          "type": "string"
        }
      ],
      "stateMutability": "view",
      "type": "function"
    },
    {
      "inputs": [
        {
          "internalType": "address",
          "name": "",
          "type": "address"
        }
      ],
      "name": "nonces",
      "outputs": [
        {
          "internalType": "uint256",
          "name": "",
          "type": "uint256"
        }
      ],
      "stateMutability": "view",
      "type": "function"
    },
    {
      "inputs": [
        {
          "internalType": "address",
          "name": "owner",
          "type": "address"
        },
        {
          "internalType": "address",
          "name": "spender",
          "type": "address"
        },
        {
          "internalType": "uint256",
          "name": "value",
          "type": "uint256"
        },
        {
          "internalType": "uint256",
          "name": "deadline",
          "type": "uint256"
        },
        {
          "internalType": "uint8",
          "name": "v",
          "type": "uint8"
        },
        {
          "internalType": "bytes32",
          "name": "r",
          "type": "bytes32"
        },
        {
          "internalType": "bytes32",
          "name": "s",
          "type": "bytes32"
        }
      ],
      "name": "permit",
      "outputs": [],
      "stateMutability": "nonpayable",
      "type": "function"
    },
    {
      "inputs": [],
      "name": "symbol",
      "outputs": [
        {
          "internalType": "string",
          "name": "",
          "type": "string"
        }
      ],
      "stateMutability": "view",
      "type": "function"
    },
    {
      "inputs": [
        {
          "internalType": "address",
          "name": "recipient",
          "type": "address"
        },
        {
          "internalType": "uint256",
          "name": "amount",
          "type": "uint256"
        }
      ],
      "name": "transfer",
      "outputs": [
        {
          "internalType": "bool",
          "name": "",
          "type": "bool"
        }
      ],
      "stateMutability": "nonpayable",
      "type": "function"
    },
    {
      "inputs": [
        {
          "internalType": "address",
          "name": "spender",
          "type": "address"
        },
        {
          "internalType": "address",
          "name": "recipient",
          "type": "address"
        },
        {
          "internalType": "uint256",
          "name": "amount",
          "type": "uint256"
        }
      ],
      "name": "transferFrom",
      "outputs": [
        {
          "internalType": "bool",
          "name": "",
          "type": "bool"
        }
      ],
      "stateMutability": "nonpayable",
      "type": "function"
    },
    {
      "inputs": [],
      "name": "faucet",
      "outputs": [],
      "stateMutability": "nonpayable",
      "type": "function"
    }
  ],
  "bytecode": "0x60806040523480156200001157600080fd5b506040518060400160405280600481526020017f55534441000000000000000000000000000000000000000000000000000000008152506040518060400160405280600481526020017f555344410000000000000000000000000000000000000000000000000000000081525081600090805190602001906200009692919062000370565b508060019080519060200190620000af92919062000370565b506012600260006101000a81548160ff021916908360ff1602179055507fffffffffffffffffffffffffffffffffffffffffffffffffffffffffffffffff600360008073ffffffffffffffffffffffffffffffffffffffff1673ffffffffffffffffffffffffffffffffffffffff168152602001908152602001600020819055507fffffffffffffffffffffffffffffffffffffffffffffffffffffffffffffffff600360003073ffffffffffffffffffffffffffffffffffffffff1673ffffffffffffffffffffffffffffffffffffffff16815260200190815260200160002081905550620001a46200027260201b60201c565b7f8b73c3c69bb8fe3d512ecc4cf759cc79239f7b179b0ffacaa9a75d522b39400f6000604051620001d69190620004de565b60405180910390206040518060400160405280600181526020017f310000000000000000000000000000000000000000000000000000000000000081525080519060200120463060405160200162000233959493929190620004f7565b6040516020818303038152906040528051906020012060068190555050506200026c33683635c9adc5dea000006200027460201b60201c565b620006ca565b565b80600360008473ffffffffffffffffffffffffffffffffffffffff1673ffffffffffffffffffffffffffffffffffffffff16815260200190815260200160002054620002c1919062000591565b600360008473ffffffffffffffffffffffffffffffffffffffff1673ffffffffffffffffffffffffffffffffffffffff168152602001908152602001600020819055508173ffffffffffffffffffffffffffffffffffffffff16600073ffffffffffffffffffffffffffffffffffffffff167fddf252ad1be2c89b69c2b068fc378daa952ba7f163c4a11628f55a4df523b3ef8360405162000364919062000554565b60405180910390a35050565b8280546200037e9062000636565b90600052602060002090601f016020900481019282620003a25760008555620003ee565b82601f10620003bd57805160ff1916838001178555620003ee565b82800160010185558215620003ee579182015b82811115620003ed578251825591602001919060010190620003d0565b5b509050620003fd919062000401565b5090565b5b808211156200041c57600081600090555060010162000402565b5090565b6200042b81620005ee565b82525050565b6200043c8162000602565b82525050565b60008154620004518162000636565b6200045d818662000586565b945060018216600081146200047b57600181146200048d57620004c4565b60ff19831686528186019350620004c4565b620004988562000571565b60005b83811015620004bc578154818901526001820191506020810190506200049b565b838801955050505b50505092915050565b620004d8816200062c565b82525050565b6000620004ec828462000442565b915081905092915050565b600060a0820190506200050e600083018862000431565b6200051d602083018762000431565b6200052c604083018662000431565b6200053b6060830185620004cd565b6200054a608083018462000420565b9695505050505050565b60006020820190506200056b6000830184620004cd565b92915050565b60008190508160005260206000209050919050565b600081905092915050565b60006200059e826200062c565b9150620005ab836200062c565b9250827fffffffffffffffffffffffffffffffffffffffffffffffffffffffffffffffff03821115620005e357620005e26200066c565b5b828201905092915050565b6000620005fb826200060c565b9050919050565b6000819050919050565b600073ffffffffffffffffffffffffffffffffffffffff82169050919050565b6000819050919050565b600060028204905060018216806200064f57607f821691505b602082108114156200066657620006656200069b565b5b50919050565b7f4e487b7100000000000000000000000000000000000000000000000000000000600052601160045260246000fd5b7f4e487b7100000000000000000000000000000000000000000000000000000000600052602260045260246000fd5b61173580620006da6000396000f3fe608060405234801561001057600080fd5b50600436106100cf5760003560e01c806370a082311161008c578063a9059cbb11610066578063a9059cbb1461022a578063d505accf1461025a578063dd62ed3e14610276578063de5f72fd146102a6576100cf565b806370a08231146101ac5780637ecebe00146101dc57806395d89b411461020c576100cf565b806306fdde03146100d4578063095ea7b3146100f257806323b872dd1461012257806330adf81f14610152578063313ce567146101705780633644e5151461018e575b600080fd5b6100dc6102b0565b6040516100e99190611354565b60405180910390f35b61010c60048036038101906101079190610f84565b61033e565b6040516101199190611278565b60405180910390f35b61013c60048036038101906101379190610e97565b610430565b6040516101499190611278565b60405180910390f35b61015a6107b3565b6040516101679190611293565b60405180910390f35b6101786107da565b6040516101859190611451565b60405180910390f35b6101966107ed565b6040516101a39190611293565b60405180910390f35b6101c660048036038101906101c19190610e32565b6107f3565b6040516101d39190611436565b60405180910390f35b6101f660048036038101906101f19190610e32565b61080b565b6040516102039190611436565b60405180910390f35b610214610823565b6040516102219190611354565b60405180910390f35b610244600480360381019061023f9190610f84565b6108b1565b6040516102519190611278565b60405180910390f35b610274600480360381019061026f9190610ee6565b6108c6565b005b610290600480360381019061028b9190610e5b565b610cac565b60405161029d9190611436565b60405180910390f35b6102ae610cd1565b005b600080546102bd906115af565b80601f01602080910402602001604051908101604052809291908181526020018280546102e9906115af565b80156103365780601f1061030b57610100808354040283529160200191610336565b820191906000526020600020905b81548152906001019060200180831161031957829003601f168201915b505050505081565b600081600460003373ffffffffffffffffffffffffffffffffffffffff1673ffffffffffffffffffffffffffffffffffffffff16815260200190815260200160002060008573ffffffffffffffffffffffffffffffffffffffff1673ffffffffffffffffffffffffffffffffffffffff168152602001908152602001600020819055508273ffffffffffffffffffffffffffffffffffffffff163373ffffffffffffffffffffffffffffffffffffffff167f8c5be1e5ebec7d5bd14f71427d1e84f3dd0314c0f7b2291e5b200ac8c7c3b9258460405161041e9190611436565b60405180910390a36001905092915050565b600080600360008673ffffffffffffffffffffffffffffffffffffffff1673ffffffffffffffffffffffffffffffffffffffff168152602001908152602001600020549050828110156104b8576040517f08c379a00000000000000000000000000000000000000000000000000000000081526004016104af90611416565b60405180910390fd5b3373ffffffffffffffffffffffffffffffffffffffff168573ffffffffffffffffffffffffffffffffffffffff1614610665576000600460008773ffffffffffffffffffffffffffffffffffffffff1673ffffffffffffffffffffffffffffffffffffffff16815260200190815260200160002060003373ffffffffffffffffffffffffffffffffffffffff1673ffffffffffffffffffffffffffffffffffffffff1681526020019081526020016000205490507fffffffffffffffffffffffffffffffffffffffffffffffffffffffffffffffff811461066357838110156105d6576040517f08c379a00000000000000000000000000000000000000000000000000000000081526004016105cd90611376565b60405180910390fd5b83816105e291906114e9565b600460008873ffffffffffffffffffffffffffffffffffffffff1673ffffffffffffffffffffffffffffffffffffffff16815260200190815260200160002060003373ffffffffffffffffffffffffffffffffffffffff1673ffffffffffffffffffffffffffffffffffffffff168152602001908152602001600020819055505b505b828161067191906114e9565b600360008773ffffffffffffffffffffffffffffffffffffffff1673ffffffffffffffffffffffffffffffffffffffff1681526020019081526020016000208190555082600360008673ffffffffffffffffffffffffffffffffffffffff1673ffffffffffffffffffffffffffffffffffffffff168152602001908152602001600020546106ff9190611493565b600360008673ffffffffffffffffffffffffffffffffffffffff1673ffffffffffffffffffffffffffffffffffffffff168152602001908152602001600020819055508373ffffffffffffffffffffffffffffffffffffffff168573ffffffffffffffffffffffffffffffffffffffff167fddf252ad1be2c89b69c2b068fc378daa952ba7f163c4a11628f55a4df523b3ef8560405161079f9190611436565b60405180910390a360019150509392505050565b7f6e71edae12b1b97f4d1f60370fef10105fa2faae0126114a169c64845d6126c960001b81565b600260009054906101000a900460ff1681565b60065481565b60036020528060005260406000206000915090505481565b60056020528060005260406000206000915090505481565b60018054610830906115af565b80601f016020809104026020016040519081016040528092919081815260200182805461085c906115af565b80156108a95780601f1061087e576101008083540402835291602001916108a9565b820191906000526020600020905b81548152906001019060200180831161088c57829003601f168201915b505050505081565b60006108be338484610430565b905092915050565b60006006547f6e71edae12b1b97f4d1f60370fef10105fa2faae0126114a169c64845d6126c960001b898989600560008e73ffffffffffffffffffffffffffffffffffffffff1673ffffffffffffffffffffffffffffffffffffffff168152602001908152602001600020548a604051602001610948969594939291906112ae565b6040516020818303038152906040528051906020012060405160200161096f929190611241565b604051602081830303815290604052805190602001209050600073ffffffffffffffffffffffffffffffffffffffff168873ffffffffffffffffffffffffffffffffffffffff1614156109f7576040517f08c379a00000000000000000000000000000000000000000000000000000000081526004016109ee906113b6565b60405180910390fd5b60018185858560405160008152602001604052604051610a1a949392919061130f565b6020604051602081039080840390855afa158015610a3c573d6000803e3d6000fd5b5050506020604051035173ffffffffffffffffffffffffffffffffffffffff168873ffffffffffffffffffffffffffffffffffffffff1614610ab3576040517f08c379a0000000000000000000000000000000000000000000000000000000008152600401610aaa906113d6565b60405180910390fd5b6000851480610ac25750844211155b610b01576040517f08c379a0000000000000000000000000000000000000000000000000000000008152600401610af8906113f6565b60405180910390fd5b7f7fffffffffffffffffffffffffffffff5d576e7357a4501ddfe92f46681b20a08260001c1115610b67576040517f08c379a0000000000000000000000000000000000000000000000000000000008152600401610b5e90611396565b60405180910390fd5b600560008973ffffffffffffffffffffffffffffffffffffffff1673ffffffffffffffffffffffffffffffffffffffff1681526020019081526020016000206000815480929190610bb7906115e1565b919050555085600460008a73ffffffffffffffffffffffffffffffffffffffff1673ffffffffffffffffffffffffffffffffffffffff16815260200190815260200160002060008973ffffffffffffffffffffffffffffffffffffffff1673ffffffffffffffffffffffffffffffffffffffff168152602001908152602001600020819055508673ffffffffffffffffffffffffffffffffffffffff168873ffffffffffffffffffffffffffffffffffffffff167f8c5be1e5ebec7d5bd14f71427d1e84f3dd0314c0f7b2291e5b200ac8c7c3b92588604051610c9a9190611436565b60405180910390a35050505050505050565b6004602052816000526040600020602052806000526040600020600091509150505481565b610ce433683635c9adc5dea00000610ce6565b565b80600360008473ffffffffffffffffffffffffffffffffffffffff1673ffffffffffffffffffffffffffffffffffffffff16815260200190815260200160002054610d319190611493565b600360008473ffffffffffffffffffffffffffffffffffffffff1673ffffffffffffffffffffffffffffffffffffffff168152602001908152602001600020819055508173ffffffffffffffffffffffffffffffffffffffff16600073ffffffffffffffffffffffffffffffffffffffff167fddf252ad1be2c89b69c2b068fc378daa952ba7f163c4a11628f55a4df523b3ef83604051610dd29190611436565b60405180910390a35050565b600081359050610ded816116a3565b92915050565b600081359050610e02816116ba565b92915050565b600081359050610e17816116d1565b92915050565b600081359050610e2c816116e8565b92915050565b600060208284031215610e4457600080fd5b6000610e5284828501610dde565b91505092915050565b60008060408385031215610e6e57600080fd5b6000610e7c85828601610dde565b9250506020610e8d85828601610dde565b9150509250929050565b600080600060608486031215610eac57600080fd5b6000610eba86828701610dde565b9350506020610ecb86828701610dde565b9250506040610edc86828701610e08565b9150509250925092565b600080600080600080600060e0888a031215610f0157600080fd5b6000610f0f8a828b01610dde565b9750506020610f208a828b01610dde565b9650506040610f318a828b01610e08565b9550506060610f428a828b01610e08565b9450506080610f538a828b01610e1d565b93505060a0610f648a828b01610df3565b92505060c0610f758a828b01610df3565b91505092959891949750929550565b60008060408385031215610f9757600080fd5b6000610fa585828601610dde565b9250506020610fb685828601610e08565b9150509250929050565b610fc98161151d565b82525050565b610fd88161152f565b82525050565b610fe78161153b565b82525050565b610ffe610ff98261153b565b61162a565b82525050565b600061100f8261146c565b6110198185611477565b935061102981856020860161157c565b61103281611692565b840191505092915050565b600061104a601d83611477565b91507f45524332303a20696e73756666696369656e742d616c6c6f77616e63650000006000830152602082019050919050565b600061108a600283611488565b91507f19010000000000000000000000000000000000000000000000000000000000006000830152600282019050919050565b60006110ca602283611477565b91507f45524332303a20696e76616c6964207369676e6174757265202773272076616c60008301527f75650000000000000000000000000000000000000000000000000000000000006020830152604082019050919050565b6000611130601883611477565b91507f45524332303a20696e76616c69642d616464726573732d3000000000000000006000830152602082019050919050565b6000611170601583611477565b91507f45524332303a20696e76616c69642d7065726d697400000000000000000000006000830152602082019050919050565b60006111b0601583611477565b91507f45524332303a207065726d69742d6578706972656400000000000000000000006000830152602082019050919050565b60006111f0601b83611477565b91507f45524332303a20696e73756666696369656e742d62616c616e636500000000006000830152602082019050919050565b61122c81611565565b82525050565b61123b8161156f565b82525050565b600061124c8261107d565b91506112588285610fed565b6020820191506112688284610fed565b6020820191508190509392505050565b600060208201905061128d6000830184610fcf565b92915050565b60006020820190506112a86000830184610fde565b92915050565b600060c0820190506112c36000830189610fde565b6112d06020830188610fc0565b6112dd6040830187610fc0565b6112ea6060830186611223565b6112f76080830185611223565b61130460a0830184611223565b979650505050505050565b60006080820190506113246000830187610fde565b6113316020830186611232565b61133e6040830185610fde565b61134b6060830184610fde565b95945050505050565b6000602082019050818103600083015261136e8184611004565b905092915050565b6000602082019050818103600083015261138f8161103d565b9050919050565b600060208201905081810360008301526113af816110bd565b9050919050565b600060208201905081810360008301526113cf81611123565b9050919050565b600060208201905081810360008301526113ef81611163565b9050919050565b6000602082019050818103600083015261140f816111a3565b9050919050565b6000602082019050818103600083015261142f816111e3565b9050919050565b600060208201905061144b6000830184611223565b92915050565b60006020820190506114666000830184611232565b92915050565b600081519050919050565b600082825260208201905092915050565b600081905092915050565b600061149e82611565565b91506114a983611565565b9250827fffffffffffffffffffffffffffffffffffffffffffffffffffffffffffffffff038211156114de576114dd611634565b5b828201905092915050565b60006114f482611565565b91506114ff83611565565b92508282101561151257611511611634565b5b828203905092915050565b600061152882611545565b9050919050565b60008115159050919050565b6000819050919050565b600073ffffffffffffffffffffffffffffffffffffffff82169050919050565b6000819050919050565b600060ff82169050919050565b60005b8381101561159a57808201518184015260208101905061157f565b838111156115a9576000848401525b50505050565b600060028204905060018216806115c757607f821691505b602082108114156115db576115da611663565b5b50919050565b60006115ec82611565565b91507fffffffffffffffffffffffffffffffffffffffffffffffffffffffffffffffff82141561161f5761161e611634565b5b600182019050919050565b6000819050919050565b7f4e487b7100000000000000000000000000000000000000000000000000000000600052601160045260246000fd5b7f4e487b7100000000000000000000000000000000000000000000000000000000600052602260045260246000fd5b6000601f19601f8301169050919050565b6116ac8161151d565b81146116b757600080fd5b50565b6116c38161153b565b81146116ce57600080fd5b50565b6116da81611565565b81146116e557600080fd5b50565b6116f18161156f565b81146116fc57600080fd5b5056fea2646970667358221220cab32fdfb6e040c99c5fa9d1d8dffeaf30a93d6c3073687334e04fb1f7aad96d64736f6c63430008000033",
  "immutableReferences": {},
  "source": "// SPDX-License-Identifier: Apache-2.0\r\npragma solidity ^0.8.0;\r\n\r\n// import \"@openzeppelin/contracts/token/ERC20/ERC20.sol\";\r\nimport \"../libraries/ERC20Permit.sol\";\r\n\r\ncontract USDA is ERC20Permit {\r\n    constructor() ERC20Permit(\"USDA\", \"USDA\") {\r\n        _mint(msg.sender, 1000 * 1e18);\r\n    }\r\n    function faucet() public {\r\n        _mint(msg.sender, 1000 * 1e18);\r\n    }\r\n}",
  "sourcePath": "/f/BlockChain/conflux/contract/Lfi-Vault/contracts/USDA.sol",
  "compiler": {
    "name": "solc",
    "version": "0.8.0+commit.c7dfd78e.Emscripten.clang"
  },
  "schemaVersion": "3.3.4",
  "updatedAt": "2021-08-29T16:45:34.387Z",
  "devdoc": {
    "kind": "dev",
    "methods": {
      "approve(address,uint256)": {
        "params": {
          "account": "The account which will be approve to transfer tokens",
          "amount": "The approval amount, if set to uint256.max the allowance does not go down on transfers."
        },
        "returns": {
          "_0": "returns true for compatibility with the ERC20 standard"
        }
      },
      "permit(address,address,uint256,uint256,uint8,bytes32,bytes32)": {
        "details": "The signature for this function follows EIP 712 standard and should be generated with the      eth_signTypedData JSON RPC call instead of the eth_sign JSON RPC call. If using out of date      parity signing libraries the v component may need to be adjusted. Also it is very rare but possible      for v to be other values, those values are not supported.",
        "params": {
          "deadline": "the timestamp which the signature must be submitted by to be valid",
          "owner": "the owner of the account which is having the new approval set",
          "r": "The r component of the ECDSA signature",
          "s": "The s component of the ECDSA signature",
          "spender": "the address which will be allowed to spend owner's tokens",
          "v": "Extra ECDSA data which allows public key recovery from signature assumed to be 27 or 28",
          "value": "the new allowance value"
        }
      },
      "transfer(address,uint256)": {
        "details": "transfers to this contract address or 0 will fail",
        "params": {
          "amount": "The amount user token to send",
          "recipient": "The address which will be credited with the tokens"
        },
        "returns": {
          "_0": "returns true on success, reverts on failure so cannot return false."
        }
      },
      "transferFrom(address,address,uint256)": {
        "details": "will fail transfers which send funds to this contract or 0",
        "params": {
          "amount": "the number of tokens to send",
          "recipient": "The destination of the ERC20 tokens",
          "spender": "The source of the ERC20 tokens"
        },
        "returns": {
          "_0": "returns true on success and reverts on failure"
        }
      }
    },
    "version": 1
  },
  "userdoc": {
    "kind": "user",
    "methods": {
      "approve(address,uint256)": {
        "notice": "This function allows a user to approve an account which can transfer         tokens on their behalf."
      },
      "permit(address,address,uint256,uint256,uint8,bytes32,bytes32)": {
        "notice": "This function allows a caller who is not the owner of an account to execute the functionality of 'approve' with the owners signature."
      },
      "transfer(address,uint256)": {
        "notice": "Allows a token owner to send tokens to another address"
      },
      "transferFrom(address,address,uint256)": {
        "notice": "Transfers an amount of erc20 from a spender to a receipt"
      }
    },
    "version": 1
  }
}