{
  "contractName": "Vault",
  "abi": [
    {
      "inputs": [
        {
          "internalType": "address",
          "name": "_addr",
          "type": "address"
        }
      ],
      "stateMutability": "nonpayable",
      "type": "constructor"
    },
    {
      "anonymous": false,
      "inputs": [
        {
          "indexed": true,
          "internalType": "address",
          "name": "owner",
          "type": "address"
        },
        {
          "indexed": true,
          "internalType": "address",
          "name": "spender",
          "type": "address"
        },
        {
          "indexed": false,
          "internalType": "uint256",
          "name": "value",
          "type": "uint256"
        }
      ],
      "name": "Approval",
      "type": "event"
    },
    {
      "anonymous": false,
      "inputs": [
        {
          "indexed": true,
          "internalType": "address",
          "name": "from",
          "type": "address"
        },
        {
          "indexed": true,
          "internalType": "address",
          "name": "to",
          "type": "address"
        },
        {
          "indexed": false,
          "internalType": "uint256",
          "name": "value",
          "type": "uint256"
        }
      ],
      "name": "Transfer",
      "type": "event"
    },
    {
      "inputs": [],
      "name": "addr",
      "outputs": [
        {
          "internalType": "address",
          "name": "",
          "type": "address"
        }
      ],
      "stateMutability": "view",
      "type": "function"
    },
    {
      "inputs": [
        {
          "internalType": "address",
          "name": "owner",
          "type": "address"
        },
        {
          "internalType": "address",
          "name": "spender",
          "type": "address"
        }
      ],
      "name": "allowance",
      "outputs": [
        {
          "internalType": "uint256",
          "name": "",
          "type": "uint256"
        }
      ],
      "stateMutability": "view",
      "type": "function"
    },
    {
      "inputs": [
        {
          "internalType": "address",
          "name": "spender",
          "type": "address"
        },
        {
          "internalType": "uint256",
          "name": "amount",
          "type": "uint256"
        }
      ],
      "name": "approve",
      "outputs": [
        {
          "internalType": "bool",
          "name": "",
          "type": "bool"
        }
      ],
      "stateMutability": "nonpayable",
      "type": "function"
    },
    {
      "inputs": [
        {
          "internalType": "address",
          "name": "account",
          "type": "address"
        }
      ],
      "name": "balanceOf",
      "outputs": [
        {
          "internalType": "uint256",
          "name": "",
          "type": "uint256"
        }
      ],
      "stateMutability": "view",
      "type": "function"
    },
    {
      "inputs": [],
      "name": "decimals",
      "outputs": [
        {
          "internalType": "uint8",
          "name": "",
          "type": "uint8"
        }
      ],
      "stateMutability": "view",
      "type": "function"
    },
    {
      "inputs": [
        {
          "internalType": "address",
          "name": "spender",
          "type": "address"
        },
        {
          "internalType": "uint256",
          "name": "subtractedValue",
          "type": "uint256"
        }
      ],
      "name": "decreaseAllowance",
      "outputs": [
        {
          "internalType": "bool",
          "name": "",
          "type": "bool"
        }
      ],
      "stateMutability": "nonpayable",
      "type": "function"
    },
    {
      "inputs": [
        {
          "internalType": "address",
          "name": "spender",
          "type": "address"
        },
        {
          "internalType": "uint256",
          "name": "addedValue",
          "type": "uint256"
        }
      ],
      "name": "increaseAllowance",
      "outputs": [
        {
          "internalType": "bool",
          "name": "",
          "type": "bool"
        }
      ],
      "stateMutability": "nonpayable",
      "type": "function"
    },
    {
      "inputs": [],
      "name": "name",
      "outputs": [
        {
          "internalType": "string",
          "name": "",
          "type": "string"
        }
      ],
      "stateMutability": "view",
      "type": "function"
    },
    {
      "inputs": [],
      "name": "symbol",
      "outputs": [
        {
          "internalType": "string",
          "name": "",
          "type": "string"
        }
      ],
      "stateMutability": "view",
      "type": "function"
    },
    {
      "inputs": [],
      "name": "token",
      "outputs": [
        {
          "internalType": "contract ERC20",
          "name": "",
          "type": "address"
        }
      ],
      "stateMutability": "view",
      "type": "function"
    },
    {
      "inputs": [],
      "name": "totalSupply",
      "outputs": [
        {
          "internalType": "uint256",
          "name": "",
          "type": "uint256"
        }
      ],
      "stateMutability": "view",
      "type": "function"
    },
    {
      "inputs": [
        {
          "internalType": "address",
          "name": "recipient",
          "type": "address"
        },
        {
          "internalType": "uint256",
          "name": "amount",
          "type": "uint256"
        }
      ],
      "name": "transfer",
      "outputs": [
        {
          "internalType": "bool",
          "name": "",
          "type": "bool"
        }
      ],
      "stateMutability": "nonpayable",
      "type": "function"
    },
    {
      "inputs": [
        {
          "internalType": "address",
          "name": "sender",
          "type": "address"
        },
        {
          "internalType": "address",
          "name": "recipient",
          "type": "address"
        },
        {
          "internalType": "uint256",
          "name": "amount",
          "type": "uint256"
        }
      ],
      "name": "transferFrom",
      "outputs": [
        {
          "internalType": "bool",
          "name": "",
          "type": "bool"
        }
      ],
      "stateMutability": "nonpayable",
      "type": "function"
    },
    {
      "inputs": [
        {
          "internalType": "address",
          "name": "_addr",
          "type": "address"
        }
      ],
      "name": "setAddr",
      "outputs": [],
      "stateMutability": "nonpayable",
      "type": "function"
    },
    {
      "inputs": [
        {
          "internalType": "uint256",
          "name": "_amount",
          "type": "uint256"
        },
        {
          "internalType": "address",
          "name": "recipient",
          "type": "address"
        }
      ],
      "name": "deposit",
      "outputs": [],
      "stateMutability": "nonpayable",
      "type": "function"
    },
    {
      "inputs": [
        {
          "internalType": "uint256",
          "name": "_shares",
          "type": "uint256"
        },
        {
          "internalType": "address",
          "name": "_destination",
          "type": "address"
        },
        {
          "internalType": "uint256",
          "name": "_minUnderlying",
          "type": "uint256"
        }
      ],
      "name": "_withdraw",
      "outputs": [
        {
          "internalType": "uint256",
          "name": "",
          "type": "uint256"
        }
      ],
      "stateMutability": "nonpayable",
      "type": "function"
    },
    {
      "inputs": [],
      "name": "pricePerShare",
      "outputs": [
        {
          "internalType": "uint256",
          "name": "",
          "type": "uint256"
        }
      ],
      "stateMutability": "view",
      "type": "function"
    },
    {
      "inputs": [],
      "name": "totalAssets",
      "outputs": [
        {
          "internalType": "uint256",
          "name": "",
          "type": "uint256"
        }
      ],
      "stateMutability": "view",
      "type": "function"
    },
    {
      "inputs": [],
      "name": "apiVersion",
      "outputs": [
        {
          "internalType": "string",
          "name": "",
          "type": "string"
        }
      ],
      "stateMutability": "view",
      "type": "function"
    }
  ],
  "bytecode": "0x60806040523480156200001157600080fd5b5060405162002c0138038062002c0183398181016040528101906200003791906200039f565b8073ffffffffffffffffffffffffffffffffffffffff166306fdde036040518163ffffffff1660e01b815260040160006040518083038186803b1580156200007e57600080fd5b505afa15801562000093573d6000803e3d6000fd5b505050506040513d6000823e3d601f19601f82011682018060405250810190620000be9190620003cb565b604051602001620000d0919062000489565b6040516020818303038152906040528173ffffffffffffffffffffffffffffffffffffffff166395d89b416040518163ffffffff1660e01b815260040160006040518083038186803b1580156200012657600080fd5b505afa1580156200013b573d6000803e3d6000fd5b505050506040513d6000823e3d601f19601f82011682018060405250810190620001669190620003cb565b60405160200162000178919062000489565b60405160208183030381529060405281600390805190602001906200019f92919062000266565b508060049080519060200190620001b892919062000266565b50505080600660006101000a81548173ffffffffffffffffffffffffffffffffffffffff021916908373ffffffffffffffffffffffffffffffffffffffff160217905550600660009054906101000a900473ffffffffffffffffffffffffffffffffffffffff16600560006101000a81548173ffffffffffffffffffffffffffffffffffffffff021916908373ffffffffffffffffffffffffffffffffffffffff1602179055505062000644565b828054620002749062000596565b90600052602060002090601f016020900481019282620002985760008555620002e4565b82601f10620002b357805160ff1916838001178555620002e4565b82800160010185558215620002e4579182015b82811115620002e3578251825591602001919060010190620002c6565b5b509050620002f39190620002f7565b5090565b5b8082111562000312576000816000905550600101620002f8565b5090565b60006200032d6200032784620004e3565b620004af565b9050828152602081018484840111156200034657600080fd5b6200035384828562000560565b509392505050565b6000815190506200036c816200062a565b92915050565b600082601f8301126200038457600080fd5b81516200039684826020860162000316565b91505092915050565b600060208284031215620003b257600080fd5b6000620003c2848285016200035b565b91505092915050565b600060208284031215620003de57600080fd5b600082015167ffffffffffffffff811115620003f957600080fd5b620004078482850162000372565b91505092915050565b60006200041d8262000516565b62000429818562000521565b93506200043b81856020860162000560565b80840191505092915050565b60006200045660018362000521565b91507f78000000000000000000000000000000000000000000000000000000000000006000830152600182019050919050565b6000620004968262000447565b9150620004a4828462000410565b915081905092915050565b6000604051905081810181811067ffffffffffffffff82111715620004d957620004d8620005fb565b5b8060405250919050565b600067ffffffffffffffff821115620005015762000500620005fb565b5b601f19601f8301169050602081019050919050565b600081519050919050565b600081905092915050565b6000620005398262000540565b9050919050565b600073ffffffffffffffffffffffffffffffffffffffff82169050919050565b60005b838110156200058057808201518184015260208101905062000563565b8381111562000590576000848401525b50505050565b60006002820490506001821680620005af57607f821691505b60208210811415620005c657620005c5620005cc565b5b50919050565b7f4e487b7100000000000000000000000000000000000000000000000000000000600052602260045260246000fd5b7f4e487b7100000000000000000000000000000000000000000000000000000000600052604160045260246000fd5b62000635816200052c565b81146200064157600080fd5b50565b6125ad80620006546000396000f3fe608060405234801561001057600080fd5b50600436106101215760003560e01c80636e553f65116100ad578063a457c2d711610071578063a457c2d714610322578063a9059cbb14610352578063d1d80fdf14610382578063dd62ed3e1461039e578063fc0c546a146103ce57610121565b80636e553f651461027c57806370a0823114610298578063767800de146102c857806395d89b41146102e657806399530b061461030457610121565b806323b872dd116100f457806323b872dd146101b057806325829410146101e0578063313ce567146101fe578063395093511461021c578063491234451461024c57610121565b806301e1d1141461012657806306fdde0314610144578063095ea7b31461016257806318160ddd14610192575b600080fd5b61012e6103ec565b60405161013b919061224f565b60405180910390f35b61014c61049e565b60405161015991906120cd565b60405180910390f35b61017c60048036038101906101779190611a69565b610530565b6040516101899190612097565b60405180910390f35b61019a61054e565b6040516101a7919061224f565b60405180910390f35b6101ca60048036038101906101c59190611a1a565b610558565b6040516101d79190612097565b60405180910390f35b6101e8610650565b6040516101f591906120cd565b60405180910390f35b61020661068d565b604051610213919061226a565b60405180910390f35b61023660048036038101906102319190611a69565b610696565b6040516102439190612097565b60405180910390f35b61026660048036038101906102619190611b33565b610742565b604051610273919061224f565b60405180910390f35b61029660048036038101906102919190611af7565b610a7f565b005b6102b260048036038101906102ad91906119b5565b610d98565b6040516102bf919061224f565b60405180910390f35b6102d0610de0565b6040516102dd919061201c565b60405180910390f35b6102ee610e06565b6040516102fb91906120cd565b60405180910390f35b61030c610e98565b604051610319919061224f565b60405180910390f35b61033c60048036038101906103379190611a69565b610f6f565b6040516103499190612097565b60405180910390f35b61036c60048036038101906103679190611a69565b61105a565b6040516103799190612097565b60405180910390f35b61039c600480360381019061039791906119b5565b611078565b005b6103b860048036038101906103b391906119de565b61111f565b6040516103c5919061224f565b60405180910390f35b6103d66111a6565b6040516103e391906120b2565b60405180910390f35b6000600560009054906101000a900473ffffffffffffffffffffffffffffffffffffffff1673ffffffffffffffffffffffffffffffffffffffff166370a08231306040518263ffffffff1660e01b8152600401610449919061201c565b60206040518083038186803b15801561046157600080fd5b505afa158015610475573d6000803e3d6000fd5b505050506040513d601f19601f820116820180604052508101906104999190611ace565b905090565b6060600380546104ad90612462565b80601f01602080910402602001604051908101604052809291908181526020018280546104d990612462565b80156105265780601f106104fb57610100808354040283529160200191610526565b820191906000526020600020905b81548152906001019060200180831161050957829003601f168201915b5050505050905090565b600061054461053d6111cc565b84846111d4565b6001905092915050565b6000600254905090565b600061056584848461139f565b6000600160008673ffffffffffffffffffffffffffffffffffffffff1673ffffffffffffffffffffffffffffffffffffffff16815260200190815260200160002060006105b06111cc565b73ffffffffffffffffffffffffffffffffffffffff1673ffffffffffffffffffffffffffffffffffffffff16815260200190815260200160002054905082811015610630576040517f08c379a00000000000000000000000000000000000000000000000000000000081526004016106279061216f565b60405180910390fd5b6106448561063c6111cc565b8584036111d4565b60019150509392505050565b60606040518060400160405280600581526020017f302e332e35000000000000000000000000000000000000000000000000000000815250905090565b60006012905090565b60006107386106a36111cc565b8484600160006106b16111cc565b73ffffffffffffffffffffffffffffffffffffffff1673ffffffffffffffffffffffffffffffffffffffff16815260200190815260200160002060008873ffffffffffffffffffffffffffffffffffffffff1673ffffffffffffffffffffffffffffffffffffffff1681526020019081526020016000205461073391906122a1565b6111d4565b6001905092915050565b60008061074d61054e565b85600560009054906101000a900473ffffffffffffffffffffffffffffffffffffffff1673ffffffffffffffffffffffffffffffffffffffff166370a08231306040518263ffffffff1660e01b81526004016107a9919061201c565b60206040518083038186803b1580156107c157600080fd5b505afa1580156107d5573d6000803e3d6000fd5b505050506040513d601f19601f820116820180604052508101906107f99190611ace565b6108039190612328565b61080d91906122f7565b9050828111610851576040517f08c379a0000000000000000000000000000000000000000000000000000000008152600401610848906121ef565b60405180910390fd5b61085b3386611620565b6000600560009054906101000a900473ffffffffffffffffffffffffffffffffffffffff1673ffffffffffffffffffffffffffffffffffffffff166370a08231306040518263ffffffff1660e01b81526004016108b8919061201c565b60206040518083038186803b1580156108d057600080fd5b505afa1580156108e4573d6000803e3d6000fd5b505050506040513d601f19601f820116820180604052508101906109089190611ace565b9050818110156109c357600560009054906101000a900473ffffffffffffffffffffffffffffffffffffffff1673ffffffffffffffffffffffffffffffffffffffff1663a9059cbb86846040518363ffffffff1660e01b815260040161096f92919061206e565b602060405180830381600087803b15801561098957600080fd5b505af115801561099d573d6000803e3d6000fd5b505050506040513d601f19601f820116820180604052508101906109c19190611aa5565b505b600560009054906101000a900473ffffffffffffffffffffffffffffffffffffffff1673ffffffffffffffffffffffffffffffffffffffff1663a9059cbb86846040518363ffffffff1660e01b8152600401610a2092919061206e565b602060405180830381600087803b158015610a3a57600080fd5b505af1158015610a4e573d6000803e3d6000fd5b505050506040513d601f19601f82011682018060405250810190610a729190611aa5565b5081925050509392505050565b6000600560009054906101000a900473ffffffffffffffffffffffffffffffffffffffff1673ffffffffffffffffffffffffffffffffffffffff166370a08231306040518263ffffffff1660e01b8152600401610adc919061201c565b60206040518083038186803b158015610af457600080fd5b505afa158015610b08573d6000803e3d6000fd5b505050506040513d601f19601f82011682018060405250810190610b2c9190611ace565b90506000600560009054906101000a900473ffffffffffffffffffffffffffffffffffffffff1673ffffffffffffffffffffffffffffffffffffffff166370a08231306040518263ffffffff1660e01b8152600401610b8b919061201c565b60206040518083038186803b158015610ba357600080fd5b505afa158015610bb7573d6000803e3d6000fd5b505050506040513d601f19601f82011682018060405250810190610bdb9190611ace565b9050600560009054906101000a900473ffffffffffffffffffffffffffffffffffffffff1673ffffffffffffffffffffffffffffffffffffffff166323b872dd3330876040518463ffffffff1660e01b8152600401610c3c93929190612037565b602060405180830381600087803b158015610c5657600080fd5b505af1158015610c6a573d6000803e3d6000fd5b505050506040513d601f19601f82011682018060405250810190610c8e9190611aa5565b506000600560009054906101000a900473ffffffffffffffffffffffffffffffffffffffff1673ffffffffffffffffffffffffffffffffffffffff166370a08231306040518263ffffffff1660e01b8152600401610cec919061201c565b60206040518083038186803b158015610d0457600080fd5b505afa158015610d18573d6000803e3d6000fd5b505050506040513d601f19601f82011682018060405250810190610d3c9190611ace565b90508181610d4a9190612382565b9450600080610d5761054e565b1415610d6557859050610d86565b83610d6e61054e565b87610d799190612328565b610d8391906122f7565b90505b610d9085826117f7565b505050505050565b60008060008373ffffffffffffffffffffffffffffffffffffffff1673ffffffffffffffffffffffffffffffffffffffff168152602001908152602001600020549050919050565b600660009054906101000a900473ffffffffffffffffffffffffffffffffffffffff1681565b606060048054610e1590612462565b80601f0160208091040260200160405190810160405280929190818152602001828054610e4190612462565b8015610e8e5780601f10610e6357610100808354040283529160200191610e8e565b820191906000526020600020905b815481529060010190602001808311610e7157829003601f168201915b5050505050905090565b6000610ea261054e565b670de0b6b3a7640000600560009054906101000a900473ffffffffffffffffffffffffffffffffffffffff1673ffffffffffffffffffffffffffffffffffffffff166370a08231306040518263ffffffff1660e01b8152600401610f06919061201c565b60206040518083038186803b158015610f1e57600080fd5b505afa158015610f32573d6000803e3d6000fd5b505050506040513d601f19601f82011682018060405250810190610f569190611ace565b610f609190612328565b610f6a91906122f7565b905090565b60008060016000610f7e6111cc565b73ffffffffffffffffffffffffffffffffffffffff1673ffffffffffffffffffffffffffffffffffffffff16815260200190815260200160002060008573ffffffffffffffffffffffffffffffffffffffff1673ffffffffffffffffffffffffffffffffffffffff1681526020019081526020016000205490508281101561103b576040517f08c379a00000000000000000000000000000000000000000000000000000000081526004016110329061220f565b60405180910390fd5b61104f6110466111cc565b858584036111d4565b600191505092915050565b600061106e6110676111cc565b848461139f565b6001905092915050565b80600660006101000a81548173ffffffffffffffffffffffffffffffffffffffff021916908373ffffffffffffffffffffffffffffffffffffffff160217905550600660009054906101000a900473ffffffffffffffffffffffffffffffffffffffff16600560006101000a81548173ffffffffffffffffffffffffffffffffffffffff021916908373ffffffffffffffffffffffffffffffffffffffff16021790555050565b6000600160008473ffffffffffffffffffffffffffffffffffffffff1673ffffffffffffffffffffffffffffffffffffffff16815260200190815260200160002060008373ffffffffffffffffffffffffffffffffffffffff1673ffffffffffffffffffffffffffffffffffffffff16815260200190815260200160002054905092915050565b600560009054906101000a900473ffffffffffffffffffffffffffffffffffffffff1681565b600033905090565b600073ffffffffffffffffffffffffffffffffffffffff168373ffffffffffffffffffffffffffffffffffffffff161415611244576040517f08c379a000000000000000000000000000000000000000000000000000000000815260040161123b906121cf565b60405180910390fd5b600073ffffffffffffffffffffffffffffffffffffffff168273ffffffffffffffffffffffffffffffffffffffff1614156112b4576040517f08c379a00000000000000000000000000000000000000000000000000000000081526004016112ab9061212f565b60405180910390fd5b80600160008573ffffffffffffffffffffffffffffffffffffffff1673ffffffffffffffffffffffffffffffffffffffff16815260200190815260200160002060008473ffffffffffffffffffffffffffffffffffffffff1673ffffffffffffffffffffffffffffffffffffffff168152602001908152602001600020819055508173ffffffffffffffffffffffffffffffffffffffff168373ffffffffffffffffffffffffffffffffffffffff167f8c5be1e5ebec7d5bd14f71427d1e84f3dd0314c0f7b2291e5b200ac8c7c3b92583604051611392919061224f565b60405180910390a3505050565b600073ffffffffffffffffffffffffffffffffffffffff168373ffffffffffffffffffffffffffffffffffffffff16141561140f576040517f08c379a0000000000000000000000000000000000000000000000000000000008152600401611406906121af565b60405180910390fd5b600073ffffffffffffffffffffffffffffffffffffffff168273ffffffffffffffffffffffffffffffffffffffff16141561147f576040517f08c379a0000000000000000000000000000000000000000000000000000000008152600401611476906120ef565b60405180910390fd5b61148a838383611957565b60008060008573ffffffffffffffffffffffffffffffffffffffff1673ffffffffffffffffffffffffffffffffffffffff16815260200190815260200160002054905081811015611510576040517f08c379a00000000000000000000000000000000000000000000000000000000081526004016115079061214f565b60405180910390fd5b8181036000808673ffffffffffffffffffffffffffffffffffffffff1673ffffffffffffffffffffffffffffffffffffffff16815260200190815260200160002081905550816000808573ffffffffffffffffffffffffffffffffffffffff1673ffffffffffffffffffffffffffffffffffffffff16815260200190815260200160002060008282546115a391906122a1565b925050819055508273ffffffffffffffffffffffffffffffffffffffff168473ffffffffffffffffffffffffffffffffffffffff167fddf252ad1be2c89b69c2b068fc378daa952ba7f163c4a11628f55a4df523b3ef84604051611607919061224f565b60405180910390a361161a84848461195c565b50505050565b600073ffffffffffffffffffffffffffffffffffffffff168273ffffffffffffffffffffffffffffffffffffffff161415611690576040517f08c379a00000000000000000000000000000000000000000000000000000000081526004016116879061218f565b60405180910390fd5b61169c82600083611957565b60008060008473ffffffffffffffffffffffffffffffffffffffff1673ffffffffffffffffffffffffffffffffffffffff16815260200190815260200160002054905081811015611722576040517f08c379a00000000000000000000000000000000000000000000000000000000081526004016117199061210f565b60405180910390fd5b8181036000808573ffffffffffffffffffffffffffffffffffffffff1673ffffffffffffffffffffffffffffffffffffffff1681526020019081526020016000208190555081600260008282546117799190612382565b92505081905550600073ffffffffffffffffffffffffffffffffffffffff168373ffffffffffffffffffffffffffffffffffffffff167fddf252ad1be2c89b69c2b068fc378daa952ba7f163c4a11628f55a4df523b3ef846040516117de919061224f565b60405180910390a36117f28360008461195c565b505050565b600073ffffffffffffffffffffffffffffffffffffffff168273ffffffffffffffffffffffffffffffffffffffff161415611867576040517f08c379a000000000000000000000000000000000000000000000000000000000815260040161185e9061222f565b60405180910390fd5b61187360008383611957565b806002600082825461188591906122a1565b92505081905550806000808473ffffffffffffffffffffffffffffffffffffffff1673ffffffffffffffffffffffffffffffffffffffff16815260200190815260200160002060008282546118da91906122a1565b925050819055508173ffffffffffffffffffffffffffffffffffffffff16600073ffffffffffffffffffffffffffffffffffffffff167fddf252ad1be2c89b69c2b068fc378daa952ba7f163c4a11628f55a4df523b3ef8360405161193f919061224f565b60405180910390a36119536000838361195c565b5050565b505050565b505050565b60008135905061197081612532565b92915050565b60008151905061198581612549565b92915050565b60008135905061199a81612560565b92915050565b6000815190506119af81612560565b92915050565b6000602082840312156119c757600080fd5b60006119d584828501611961565b91505092915050565b600080604083850312156119f157600080fd5b60006119ff85828601611961565b9250506020611a1085828601611961565b9150509250929050565b600080600060608486031215611a2f57600080fd5b6000611a3d86828701611961565b9350506020611a4e86828701611961565b9250506040611a5f8682870161198b565b9150509250925092565b60008060408385031215611a7c57600080fd5b6000611a8a85828601611961565b9250506020611a9b8582860161198b565b9150509250929050565b600060208284031215611ab757600080fd5b6000611ac584828501611976565b91505092915050565b600060208284031215611ae057600080fd5b6000611aee848285016119a0565b91505092915050565b60008060408385031215611b0a57600080fd5b6000611b188582860161198b565b9250506020611b2985828601611961565b9150509250929050565b600080600060608486031215611b4857600080fd5b6000611b568682870161198b565b9350506020611b6786828701611961565b9250506040611b788682870161198b565b9150509250925092565b611b8b816123b6565b82525050565b611b9a816123c8565b82525050565b611ba98161240b565b82525050565b6000611bba82612285565b611bc48185612290565b9350611bd481856020860161242f565b611bdd81612521565b840191505092915050565b6000611bf5602383612290565b91507f45524332303a207472616e7366657220746f20746865207a65726f206164647260008301527f65737300000000000000000000000000000000000000000000000000000000006020830152604082019050919050565b6000611c5b602283612290565b91507f45524332303a206275726e20616d6f756e7420657863656564732062616c616e60008301527f63650000000000000000000000000000000000000000000000000000000000006020830152604082019050919050565b6000611cc1602283612290565b91507f45524332303a20617070726f766520746f20746865207a65726f20616464726560008301527f73730000000000000000000000000000000000000000000000000000000000006020830152604082019050919050565b6000611d27602683612290565b91507f45524332303a207472616e7366657220616d6f756e742065786365656473206260008301527f616c616e636500000000000000000000000000000000000000000000000000006020830152604082019050919050565b6000611d8d602883612290565b91507f45524332303a207472616e7366657220616d6f756e742065786365656473206160008301527f6c6c6f77616e63650000000000000000000000000000000000000000000000006020830152604082019050919050565b6000611df3602183612290565b91507f45524332303a206275726e2066726f6d20746865207a65726f2061646472657360008301527f73000000000000000000000000000000000000000000000000000000000000006020830152604082019050919050565b6000611e59602583612290565b91507f45524332303a207472616e736665722066726f6d20746865207a65726f20616460008301527f64726573730000000000000000000000000000000000000000000000000000006020830152604082019050919050565b6000611ebf602483612290565b91507f45524332303a20617070726f76652066726f6d20746865207a65726f2061646460008301527f72657373000000000000000000000000000000000000000000000000000000006020830152604082019050919050565b6000611f25601a83612290565b91507f616d6f756e74206e656564206265796f6e6420746865206d696e0000000000006000830152602082019050919050565b6000611f65602583612290565b91507f45524332303a2064656372656173656420616c6c6f77616e63652062656c6f7760008301527f207a65726f0000000000000000000000000000000000000000000000000000006020830152604082019050919050565b6000611fcb601f83612290565b91507f45524332303a206d696e7420746f20746865207a65726f2061646472657373006000830152602082019050919050565b612007816123f4565b82525050565b612016816123fe565b82525050565b60006020820190506120316000830184611b82565b92915050565b600060608201905061204c6000830186611b82565b6120596020830185611b82565b6120666040830184611ffe565b949350505050565b60006040820190506120836000830185611b82565b6120906020830184611ffe565b9392505050565b60006020820190506120ac6000830184611b91565b92915050565b60006020820190506120c76000830184611ba0565b92915050565b600060208201905081810360008301526120e78184611baf565b905092915050565b6000602082019050818103600083015261210881611be8565b9050919050565b6000602082019050818103600083015261212881611c4e565b9050919050565b6000602082019050818103600083015261214881611cb4565b9050919050565b6000602082019050818103600083015261216881611d1a565b9050919050565b6000602082019050818103600083015261218881611d80565b9050919050565b600060208201905081810360008301526121a881611de6565b9050919050565b600060208201905081810360008301526121c881611e4c565b9050919050565b600060208201905081810360008301526121e881611eb2565b9050919050565b6000602082019050818103600083015261220881611f18565b9050919050565b6000602082019050818103600083015261222881611f58565b9050919050565b6000602082019050818103600083015261224881611fbe565b9050919050565b60006020820190506122646000830184611ffe565b92915050565b600060208201905061227f600083018461200d565b92915050565b600081519050919050565b600082825260208201905092915050565b60006122ac826123f4565b91506122b7836123f4565b9250827fffffffffffffffffffffffffffffffffffffffffffffffffffffffffffffffff038211156122ec576122eb612494565b5b828201905092915050565b6000612302826123f4565b915061230d836123f4565b92508261231d5761231c6124c3565b5b828204905092915050565b6000612333826123f4565b915061233e836123f4565b9250817fffffffffffffffffffffffffffffffffffffffffffffffffffffffffffffffff048311821515161561237757612376612494565b5b828202905092915050565b600061238d826123f4565b9150612398836123f4565b9250828210156123ab576123aa612494565b5b828203905092915050565b60006123c1826123d4565b9050919050565b60008115159050919050565b600073ffffffffffffffffffffffffffffffffffffffff82169050919050565b6000819050919050565b600060ff82169050919050565b60006124168261241d565b9050919050565b6000612428826123d4565b9050919050565b60005b8381101561244d578082015181840152602081019050612432565b8381111561245c576000848401525b50505050565b6000600282049050600182168061247a57607f821691505b6020821081141561248e5761248d6124f2565b5b50919050565b7f4e487b7100000000000000000000000000000000000000000000000000000000600052601160045260246000fd5b7f4e487b7100000000000000000000000000000000000000000000000000000000600052601260045260246000fd5b7f4e487b7100000000000000000000000000000000000000000000000000000000600052602260045260246000fd5b6000601f19601f8301169050919050565b61253b816123b6565b811461254657600080fd5b50565b612552816123c8565b811461255d57600080fd5b50565b612569816123f4565b811461257457600080fd5b5056fea2646970667358221220bc1e5bdcb63eee95d65a2d4443c96dd299a22cd30186c0ebd5b9e8b71ed1dc9964736f6c63430008000033",
  "immutableReferences": {},
  "source": "// SPDX-License-Identifier: Apache-2.0\r\npragma solidity ^0.8.0;\r\n\r\nimport \"@openzeppelin/contracts/token/ERC20/ERC20.sol\";\r\n\r\ncontract Vault is ERC20 {\r\n    ERC20 public token ;\r\n    address public addr;\r\n    mapping(address => uint256) private _balances;\r\n\r\n    mapping(address => mapping(address => uint256)) private _allowances;\r\n\r\n    constructor(address _addr) \r\n        ERC20(\r\n            string(abi.encodePacked(\"x\", ERC20(_addr).name())),\r\n            string(abi.encodePacked(\"x\", ERC20(_addr).symbol()))\r\n        ) \r\n    { \r\n        addr = _addr;\r\n        token = ERC20(addr);\r\n    }\r\n\r\n    function setAddr(address _addr) public {    //underlyToken\r\n        addr = _addr;\r\n        token = ERC20(addr);\r\n    }\r\n\r\n    function deposit(uint256 _amount, address recipient) public {\r\n        uint256 _pool = token.balanceOf(address(this));\r\n        uint256 _before = token.balanceOf(address(this));\r\n\r\n        token.transferFrom(msg.sender, address(this), _amount);\r\n\r\n        uint256 _after = token.balanceOf(address(this));\r\n        _amount = _after - _before;\r\n        uint256 shares = 0;\r\n        if (totalSupply() == 0) {\r\n            shares = _amount;\r\n        } else {\r\n            shares = _amount * totalSupply() / _pool;\r\n        }\r\n        _mint(recipient, shares);\r\n    }\r\n\r\n    function _withdraw(\r\n        uint256 _shares,\r\n        address _destination,\r\n        uint256 _minUnderlying\r\n    ) public returns (uint256){\r\n        uint256 amount = token.balanceOf(address(this)) * _shares / totalSupply();\r\n        require(amount > _minUnderlying, \"amount need beyond the min\");\r\n        _burn(msg.sender, _shares);\r\n\r\n        // Check balance\r\n        uint256 b = token.balanceOf(address(this));\r\n        if (b < amount) {\r\n            //token.transfer(msg.sender, amount);\r\n            token.transfer(_destination, amount);\r\n        }\r\n\r\n        //token.transfer(msg.sender, amount);\r\n        token.transfer(_destination, amount);\r\n        return amount;\r\n    }\r\n\r\n    // // Returns the amount of underlying per each unit [1e18] of yearn shares\r\n    function pricePerShare() public view returns (uint256){\r\n        return token.balanceOf(address(this)) * 1e18 / totalSupply();\r\n    }\r\n\r\n    // function governance() external view returns (address);\r\n\r\n    // function setDepositLimit(uint256) external;\r\n\r\n    // function totalSupply() external view returns (uint256);\r\n\r\n    function totalAssets() public view returns (uint256) {\r\n        return token.balanceOf(address(this));\r\n    }\r\n\r\n    function apiVersion() public view returns (string memory) {\r\n        return \"0.3.5\";\r\n    }\r\n}",
  "sourcePath": "/f/BlockChain/conflux/contract/Lfi-Vault/contracts/Vault.sol",
  "compiler": {
    "name": "solc",
    "version": "0.8.0+commit.c7dfd78e.Emscripten.clang"
  },
  "schemaVersion": "3.3.4",
  "updatedAt": "2021-08-29T16:45:34.404Z",
  "devdoc": {
    "kind": "dev",
    "methods": {
      "allowance(address,address)": {
        "details": "See {IERC20-allowance}."
      },
      "approve(address,uint256)": {
        "details": "See {IERC20-approve}. Requirements: - `spender` cannot be the zero address."
      },
      "balanceOf(address)": {
        "details": "See {IERC20-balanceOf}."
      },
      "decimals()": {
        "details": "Returns the number of decimals used to get its user representation. For example, if `decimals` equals `2`, a balance of `505` tokens should be displayed to a user as `5,05` (`505 / 10 ** 2`). Tokens usually opt for a value of 18, imitating the relationship between Ether and Wei. This is the value {ERC20} uses, unless this function is overridden; NOTE: This information is only used for _display_ purposes: it in no way affects any of the arithmetic of the contract, including {IERC20-balanceOf} and {IERC20-transfer}."
      },
      "decreaseAllowance(address,uint256)": {
        "details": "Atomically decreases the allowance granted to `spender` by the caller. This is an alternative to {approve} that can be used as a mitigation for problems described in {IERC20-approve}. Emits an {Approval} event indicating the updated allowance. Requirements: - `spender` cannot be the zero address. - `spender` must have allowance for the caller of at least `subtractedValue`."
      },
      "increaseAllowance(address,uint256)": {
        "details": "Atomically increases the allowance granted to `spender` by the caller. This is an alternative to {approve} that can be used as a mitigation for problems described in {IERC20-approve}. Emits an {Approval} event indicating the updated allowance. Requirements: - `spender` cannot be the zero address."
      },
      "name()": {
        "details": "Returns the name of the token."
      },
      "symbol()": {
        "details": "Returns the symbol of the token, usually a shorter version of the name."
      },
      "totalSupply()": {
        "details": "See {IERC20-totalSupply}."
      },
      "transfer(address,uint256)": {
        "details": "See {IERC20-transfer}. Requirements: - `recipient` cannot be the zero address. - the caller must have a balance of at least `amount`."
      },
      "transferFrom(address,address,uint256)": {
        "details": "See {IERC20-transferFrom}. Emits an {Approval} event indicating the updated allowance. This is not required by the EIP. See the note at the beginning of {ERC20}. Requirements: - `sender` and `recipient` cannot be the zero address. - `sender` must have a balance of at least `amount`. - the caller must have allowance for ``sender``'s tokens of at least `amount`."
      }
    },
    "version": 1
  },
  "userdoc": {
    "kind": "user",
    "methods": {},
    "version": 1
  }
}