{
  "contractName": "Vault",
  "abi": [
    {
      "inputs": [
        {
          "internalType": "address",
          "name": "_underlyTokenAddr",
          "type": "address"
        }
      ],
      "stateMutability": "nonpayable",
      "type": "constructor"
    },
    {
      "anonymous": false,
      "inputs": [
        {
          "indexed": true,
          "internalType": "address",
          "name": "owner",
          "type": "address"
        },
        {
          "indexed": true,
          "internalType": "address",
          "name": "spender",
          "type": "address"
        },
        {
          "indexed": false,
          "internalType": "uint256",
          "name": "value",
          "type": "uint256"
        }
      ],
      "name": "Approval",
      "type": "event"
    },
    {
      "anonymous": false,
      "inputs": [
        {
          "indexed": true,
          "internalType": "address",
          "name": "from",
          "type": "address"
        },
        {
          "indexed": true,
          "internalType": "address",
          "name": "to",
          "type": "address"
        },
        {
          "indexed": false,
          "internalType": "uint256",
          "name": "value",
          "type": "uint256"
        }
      ],
      "name": "Transfer",
      "type": "event"
    },
    {
      "inputs": [],
      "name": "addr",
      "outputs": [
        {
          "internalType": "address",
          "name": "",
          "type": "address"
        }
      ],
      "stateMutability": "view",
      "type": "function"
    },
    {
      "inputs": [
        {
          "internalType": "address",
          "name": "owner",
          "type": "address"
        },
        {
          "internalType": "address",
          "name": "spender",
          "type": "address"
        }
      ],
      "name": "allowance",
      "outputs": [
        {
          "internalType": "uint256",
          "name": "",
          "type": "uint256"
        }
      ],
      "stateMutability": "view",
      "type": "function"
    },
    {
      "inputs": [
        {
          "internalType": "address",
          "name": "spender",
          "type": "address"
        },
        {
          "internalType": "uint256",
          "name": "amount",
          "type": "uint256"
        }
      ],
      "name": "approve",
      "outputs": [
        {
          "internalType": "bool",
          "name": "",
          "type": "bool"
        }
      ],
      "stateMutability": "nonpayable",
      "type": "function"
    },
    {
      "inputs": [
        {
          "internalType": "address",
          "name": "account",
          "type": "address"
        }
      ],
      "name": "balanceOf",
      "outputs": [
        {
          "internalType": "uint256",
          "name": "",
          "type": "uint256"
        }
      ],
      "stateMutability": "view",
      "type": "function"
    },
    {
      "inputs": [],
      "name": "decimals",
      "outputs": [
        {
          "internalType": "uint8",
          "name": "",
          "type": "uint8"
        }
      ],
      "stateMutability": "view",
      "type": "function"
    },
    {
      "inputs": [
        {
          "internalType": "address",
          "name": "spender",
          "type": "address"
        },
        {
          "internalType": "uint256",
          "name": "subtractedValue",
          "type": "uint256"
        }
      ],
      "name": "decreaseAllowance",
      "outputs": [
        {
          "internalType": "bool",
          "name": "",
          "type": "bool"
        }
      ],
      "stateMutability": "nonpayable",
      "type": "function"
    },
    {
      "inputs": [
        {
          "internalType": "address",
          "name": "spender",
          "type": "address"
        },
        {
          "internalType": "uint256",
          "name": "addedValue",
          "type": "uint256"
        }
      ],
      "name": "increaseAllowance",
      "outputs": [
        {
          "internalType": "bool",
          "name": "",
          "type": "bool"
        }
      ],
      "stateMutability": "nonpayable",
      "type": "function"
    },
    {
      "inputs": [],
      "name": "name",
      "outputs": [
        {
          "internalType": "string",
          "name": "",
          "type": "string"
        }
      ],
      "stateMutability": "view",
      "type": "function"
    },
    {
      "inputs": [],
      "name": "symbol",
      "outputs": [
        {
          "internalType": "string",
          "name": "",
          "type": "string"
        }
      ],
      "stateMutability": "view",
      "type": "function"
    },
    {
      "inputs": [],
      "name": "token",
      "outputs": [
        {
          "internalType": "contract ERC20",
          "name": "",
          "type": "address"
        }
      ],
      "stateMutability": "view",
      "type": "function"
    },
    {
      "inputs": [],
      "name": "totalSupply",
      "outputs": [
        {
          "internalType": "uint256",
          "name": "",
          "type": "uint256"
        }
      ],
      "stateMutability": "view",
      "type": "function"
    },
    {
      "inputs": [
        {
          "internalType": "address",
          "name": "recipient",
          "type": "address"
        },
        {
          "internalType": "uint256",
          "name": "amount",
          "type": "uint256"
        }
      ],
      "name": "transfer",
      "outputs": [
        {
          "internalType": "bool",
          "name": "",
          "type": "bool"
        }
      ],
      "stateMutability": "nonpayable",
      "type": "function"
    },
    {
      "inputs": [
        {
          "internalType": "address",
          "name": "sender",
          "type": "address"
        },
        {
          "internalType": "address",
          "name": "recipient",
          "type": "address"
        },
        {
          "internalType": "uint256",
          "name": "amount",
          "type": "uint256"
        }
      ],
      "name": "transferFrom",
      "outputs": [
        {
          "internalType": "bool",
          "name": "",
          "type": "bool"
        }
      ],
      "stateMutability": "nonpayable",
      "type": "function"
    },
    {
      "inputs": [
        {
          "internalType": "address",
          "name": "_underlyTokenAddr",
          "type": "address"
        }
      ],
      "name": "setAddr",
      "outputs": [],
      "stateMutability": "nonpayable",
      "type": "function"
    },
    {
      "inputs": [
        {
          "internalType": "uint256",
          "name": "_amount",
          "type": "uint256"
        },
        {
          "internalType": "address",
          "name": "recipient",
          "type": "address"
        }
      ],
      "name": "deposit",
      "outputs": [
        {
          "internalType": "uint256",
          "name": "",
          "type": "uint256"
        }
      ],
      "stateMutability": "nonpayable",
      "type": "function"
    },
    {
      "inputs": [
        {
          "internalType": "uint256",
          "name": "_shares",
          "type": "uint256"
        },
        {
          "internalType": "address",
          "name": "_destination",
          "type": "address"
        },
        {
          "internalType": "uint256",
          "name": "_minUnderlying",
          "type": "uint256"
        }
      ],
      "name": "_withdraw",
      "outputs": [
        {
          "internalType": "uint256",
          "name": "",
          "type": "uint256"
        }
      ],
      "stateMutability": "nonpayable",
      "type": "function"
    },
    {
      "inputs": [],
      "name": "pricePerShare",
      "outputs": [
        {
          "internalType": "uint256",
          "name": "",
          "type": "uint256"
        }
      ],
      "stateMutability": "view",
      "type": "function"
    },
    {
      "inputs": [],
      "name": "totalAssets",
      "outputs": [
        {
          "internalType": "uint256",
          "name": "",
          "type": "uint256"
        }
      ],
      "stateMutability": "view",
      "type": "function"
    },
    {
      "inputs": [],
      "name": "apiVersion",
      "outputs": [
        {
          "internalType": "string",
          "name": "",
          "type": "string"
        }
      ],
      "stateMutability": "view",
      "type": "function"
    }
  ],
  "bytecode": "0x60806040523480156200001157600080fd5b5060405162002c1b38038062002c1b83398181016040528101906200003791906200039f565b8073ffffffffffffffffffffffffffffffffffffffff166306fdde036040518163ffffffff1660e01b815260040160006040518083038186803b1580156200007e57600080fd5b505afa15801562000093573d6000803e3d6000fd5b505050506040513d6000823e3d601f19601f82011682018060405250810190620000be9190620003cb565b604051602001620000d0919062000489565b6040516020818303038152906040528173ffffffffffffffffffffffffffffffffffffffff166395d89b416040518163ffffffff1660e01b815260040160006040518083038186803b1580156200012657600080fd5b505afa1580156200013b573d6000803e3d6000fd5b505050506040513d6000823e3d601f19601f82011682018060405250810190620001669190620003cb565b60405160200162000178919062000489565b60405160208183030381529060405281600390805190602001906200019f92919062000266565b508060049080519060200190620001b892919062000266565b50505080600660006101000a81548173ffffffffffffffffffffffffffffffffffffffff021916908373ffffffffffffffffffffffffffffffffffffffff160217905550600660009054906101000a900473ffffffffffffffffffffffffffffffffffffffff16600560006101000a81548173ffffffffffffffffffffffffffffffffffffffff021916908373ffffffffffffffffffffffffffffffffffffffff1602179055505062000644565b828054620002749062000596565b90600052602060002090601f016020900481019282620002985760008555620002e4565b82601f10620002b357805160ff1916838001178555620002e4565b82800160010185558215620002e4579182015b82811115620002e3578251825591602001919060010190620002c6565b5b509050620002f39190620002f7565b5090565b5b8082111562000312576000816000905550600101620002f8565b5090565b60006200032d6200032784620004e3565b620004af565b9050828152602081018484840111156200034657600080fd5b6200035384828562000560565b509392505050565b6000815190506200036c816200062a565b92915050565b600082601f8301126200038457600080fd5b81516200039684826020860162000316565b91505092915050565b600060208284031215620003b257600080fd5b6000620003c2848285016200035b565b91505092915050565b600060208284031215620003de57600080fd5b600082015167ffffffffffffffff811115620003f957600080fd5b620004078482850162000372565b91505092915050565b60006200041d8262000516565b62000429818562000521565b93506200043b81856020860162000560565b80840191505092915050565b60006200045660018362000521565b91507f78000000000000000000000000000000000000000000000000000000000000006000830152600182019050919050565b6000620004968262000447565b9150620004a4828462000410565b915081905092915050565b6000604051905081810181811067ffffffffffffffff82111715620004d957620004d8620005fb565b5b8060405250919050565b600067ffffffffffffffff821115620005015762000500620005fb565b5b601f19601f8301169050602081019050919050565b600081519050919050565b600081905092915050565b6000620005398262000540565b9050919050565b600073ffffffffffffffffffffffffffffffffffffffff82169050919050565b60005b838110156200058057808201518184015260208101905062000563565b8381111562000590576000848401525b50505050565b60006002820490506001821680620005af57607f821691505b60208210811415620005c657620005c5620005cc565b5b50919050565b7f4e487b7100000000000000000000000000000000000000000000000000000000600052602260045260246000fd5b7f4e487b7100000000000000000000000000000000000000000000000000000000600052604160045260246000fd5b62000635816200052c565b81146200064157600080fd5b50565b6125c780620006546000396000f3fe608060405234801561001057600080fd5b50600436106101215760003560e01c80636e553f65116100ad578063a457c2d711610071578063a457c2d714610336578063a9059cbb14610366578063d1d80fdf14610396578063dd62ed3e146103b2578063fc0c546a146103e257610121565b80636e553f651461027c57806370a08231146102ac578063767800de146102dc57806395d89b41146102fa57806399530b061461031857610121565b806323b872dd116100f457806323b872dd146101b057806325829410146101e0578063313ce567146101fe578063395093511461021c578063491234451461024c57610121565b806301e1d1141461012657806306fdde0314610144578063095ea7b31461016257806318160ddd14610192575b600080fd5b61012e610400565b60405161013b9190612269565b60405180910390f35b61014c6104b2565b60405161015991906120e7565b60405180910390f35b61017c60048036038101906101779190611a83565b610544565b60405161018991906120b1565b60405180910390f35b61019a610562565b6040516101a79190612269565b60405180910390f35b6101ca60048036038101906101c59190611a34565b61056c565b6040516101d791906120b1565b60405180910390f35b6101e8610664565b6040516101f591906120e7565b60405180910390f35b6102066106a1565b6040516102139190612284565b60405180910390f35b61023660048036038101906102319190611a83565b6106aa565b60405161024391906120b1565b60405180910390f35b61026660048036038101906102619190611b4d565b610756565b6040516102739190612269565b60405180910390f35b61029660048036038101906102919190611b11565b610a93565b6040516102a39190612269565b60405180910390f35b6102c660048036038101906102c191906119cf565b610db2565b6040516102d39190612269565b60405180910390f35b6102e4610dfa565b6040516102f19190612036565b60405180910390f35b610302610e20565b60405161030f91906120e7565b60405180910390f35b610320610eb2565b60405161032d9190612269565b60405180910390f35b610350600480360381019061034b9190611a83565b610f89565b60405161035d91906120b1565b60405180910390f35b610380600480360381019061037b9190611a83565b611074565b60405161038d91906120b1565b60405180910390f35b6103b060048036038101906103ab91906119cf565b611092565b005b6103cc60048036038101906103c791906119f8565b611139565b6040516103d99190612269565b60405180910390f35b6103ea6111c0565b6040516103f791906120cc565b60405180910390f35b6000600560009054906101000a900473ffffffffffffffffffffffffffffffffffffffff1673ffffffffffffffffffffffffffffffffffffffff166370a08231306040518263ffffffff1660e01b815260040161045d9190612036565b60206040518083038186803b15801561047557600080fd5b505afa158015610489573d6000803e3d6000fd5b505050506040513d601f19601f820116820180604052508101906104ad9190611ae8565b905090565b6060600380546104c19061247c565b80601f01602080910402602001604051908101604052809291908181526020018280546104ed9061247c565b801561053a5780601f1061050f5761010080835404028352916020019161053a565b820191906000526020600020905b81548152906001019060200180831161051d57829003601f168201915b5050505050905090565b60006105586105516111e6565b84846111ee565b6001905092915050565b6000600254905090565b60006105798484846113b9565b6000600160008673ffffffffffffffffffffffffffffffffffffffff1673ffffffffffffffffffffffffffffffffffffffff16815260200190815260200160002060006105c46111e6565b73ffffffffffffffffffffffffffffffffffffffff1673ffffffffffffffffffffffffffffffffffffffff16815260200190815260200160002054905082811015610644576040517f08c379a000000000000000000000000000000000000000000000000000000000815260040161063b90612189565b60405180910390fd5b610658856106506111e6565b8584036111ee565b60019150509392505050565b60606040518060400160405280600581526020017f302e332e35000000000000000000000000000000000000000000000000000000815250905090565b60006012905090565b600061074c6106b76111e6565b8484600160006106c56111e6565b73ffffffffffffffffffffffffffffffffffffffff1673ffffffffffffffffffffffffffffffffffffffff16815260200190815260200160002060008873ffffffffffffffffffffffffffffffffffffffff1673ffffffffffffffffffffffffffffffffffffffff1681526020019081526020016000205461074791906122bb565b6111ee565b6001905092915050565b600080610761610562565b85600560009054906101000a900473ffffffffffffffffffffffffffffffffffffffff1673ffffffffffffffffffffffffffffffffffffffff166370a08231306040518263ffffffff1660e01b81526004016107bd9190612036565b60206040518083038186803b1580156107d557600080fd5b505afa1580156107e9573d6000803e3d6000fd5b505050506040513d601f19601f8201168201806040525081019061080d9190611ae8565b6108179190612342565b6108219190612311565b9050828111610865576040517f08c379a000000000000000000000000000000000000000000000000000000000815260040161085c90612209565b60405180910390fd5b61086f338661163a565b6000600560009054906101000a900473ffffffffffffffffffffffffffffffffffffffff1673ffffffffffffffffffffffffffffffffffffffff166370a08231306040518263ffffffff1660e01b81526004016108cc9190612036565b60206040518083038186803b1580156108e457600080fd5b505afa1580156108f8573d6000803e3d6000fd5b505050506040513d601f19601f8201168201806040525081019061091c9190611ae8565b9050818110156109d757600560009054906101000a900473ffffffffffffffffffffffffffffffffffffffff1673ffffffffffffffffffffffffffffffffffffffff1663a9059cbb86846040518363ffffffff1660e01b8152600401610983929190612088565b602060405180830381600087803b15801561099d57600080fd5b505af11580156109b1573d6000803e3d6000fd5b505050506040513d601f19601f820116820180604052508101906109d59190611abf565b505b600560009054906101000a900473ffffffffffffffffffffffffffffffffffffffff1673ffffffffffffffffffffffffffffffffffffffff1663a9059cbb86846040518363ffffffff1660e01b8152600401610a34929190612088565b602060405180830381600087803b158015610a4e57600080fd5b505af1158015610a62573d6000803e3d6000fd5b505050506040513d601f19601f82011682018060405250810190610a869190611abf565b5081925050509392505050565b600080600560009054906101000a900473ffffffffffffffffffffffffffffffffffffffff1673ffffffffffffffffffffffffffffffffffffffff166370a08231306040518263ffffffff1660e01b8152600401610af19190612036565b60206040518083038186803b158015610b0957600080fd5b505afa158015610b1d573d6000803e3d6000fd5b505050506040513d601f19601f82011682018060405250810190610b419190611ae8565b90506000600560009054906101000a900473ffffffffffffffffffffffffffffffffffffffff1673ffffffffffffffffffffffffffffffffffffffff166370a08231306040518263ffffffff1660e01b8152600401610ba09190612036565b60206040518083038186803b158015610bb857600080fd5b505afa158015610bcc573d6000803e3d6000fd5b505050506040513d601f19601f82011682018060405250810190610bf09190611ae8565b9050600560009054906101000a900473ffffffffffffffffffffffffffffffffffffffff1673ffffffffffffffffffffffffffffffffffffffff166323b872dd3330886040518463ffffffff1660e01b8152600401610c5193929190612051565b602060405180830381600087803b158015610c6b57600080fd5b505af1158015610c7f573d6000803e3d6000fd5b505050506040513d601f19601f82011682018060405250810190610ca39190611abf565b506000600560009054906101000a900473ffffffffffffffffffffffffffffffffffffffff1673ffffffffffffffffffffffffffffffffffffffff166370a08231306040518263ffffffff1660e01b8152600401610d019190612036565b60206040518083038186803b158015610d1957600080fd5b505afa158015610d2d573d6000803e3d6000fd5b505050506040513d601f19601f82011682018060405250810190610d519190611ae8565b90508181610d5f919061239c565b9550600080610d6c610562565b1415610d7a57869050610d9b565b83610d83610562565b88610d8e9190612342565b610d989190612311565b90505b610da58682611811565b8094505050505092915050565b60008060008373ffffffffffffffffffffffffffffffffffffffff1673ffffffffffffffffffffffffffffffffffffffff168152602001908152602001600020549050919050565b600660009054906101000a900473ffffffffffffffffffffffffffffffffffffffff1681565b606060048054610e2f9061247c565b80601f0160208091040260200160405190810160405280929190818152602001828054610e5b9061247c565b8015610ea85780601f10610e7d57610100808354040283529160200191610ea8565b820191906000526020600020905b815481529060010190602001808311610e8b57829003601f168201915b5050505050905090565b6000610ebc610562565b670de0b6b3a7640000600560009054906101000a900473ffffffffffffffffffffffffffffffffffffffff1673ffffffffffffffffffffffffffffffffffffffff166370a08231306040518263ffffffff1660e01b8152600401610f209190612036565b60206040518083038186803b158015610f3857600080fd5b505afa158015610f4c573d6000803e3d6000fd5b505050506040513d601f19601f82011682018060405250810190610f709190611ae8565b610f7a9190612342565b610f849190612311565b905090565b60008060016000610f986111e6565b73ffffffffffffffffffffffffffffffffffffffff1673ffffffffffffffffffffffffffffffffffffffff16815260200190815260200160002060008573ffffffffffffffffffffffffffffffffffffffff1673ffffffffffffffffffffffffffffffffffffffff16815260200190815260200160002054905082811015611055576040517f08c379a000000000000000000000000000000000000000000000000000000000815260040161104c90612229565b60405180910390fd5b6110696110606111e6565b858584036111ee565b600191505092915050565b60006110886110816111e6565b84846113b9565b6001905092915050565b80600660006101000a81548173ffffffffffffffffffffffffffffffffffffffff021916908373ffffffffffffffffffffffffffffffffffffffff160217905550600660009054906101000a900473ffffffffffffffffffffffffffffffffffffffff16600560006101000a81548173ffffffffffffffffffffffffffffffffffffffff021916908373ffffffffffffffffffffffffffffffffffffffff16021790555050565b6000600160008473ffffffffffffffffffffffffffffffffffffffff1673ffffffffffffffffffffffffffffffffffffffff16815260200190815260200160002060008373ffffffffffffffffffffffffffffffffffffffff1673ffffffffffffffffffffffffffffffffffffffff16815260200190815260200160002054905092915050565b600560009054906101000a900473ffffffffffffffffffffffffffffffffffffffff1681565b600033905090565b600073ffffffffffffffffffffffffffffffffffffffff168373ffffffffffffffffffffffffffffffffffffffff16141561125e576040517f08c379a0000000000000000000000000000000000000000000000000000000008152600401611255906121e9565b60405180910390fd5b600073ffffffffffffffffffffffffffffffffffffffff168273ffffffffffffffffffffffffffffffffffffffff1614156112ce576040517f08c379a00000000000000000000000000000000000000000000000000000000081526004016112c590612149565b60405180910390fd5b80600160008573ffffffffffffffffffffffffffffffffffffffff1673ffffffffffffffffffffffffffffffffffffffff16815260200190815260200160002060008473ffffffffffffffffffffffffffffffffffffffff1673ffffffffffffffffffffffffffffffffffffffff168152602001908152602001600020819055508173ffffffffffffffffffffffffffffffffffffffff168373ffffffffffffffffffffffffffffffffffffffff167f8c5be1e5ebec7d5bd14f71427d1e84f3dd0314c0f7b2291e5b200ac8c7c3b925836040516113ac9190612269565b60405180910390a3505050565b600073ffffffffffffffffffffffffffffffffffffffff168373ffffffffffffffffffffffffffffffffffffffff161415611429576040517f08c379a0000000000000000000000000000000000000000000000000000000008152600401611420906121c9565b60405180910390fd5b600073ffffffffffffffffffffffffffffffffffffffff168273ffffffffffffffffffffffffffffffffffffffff161415611499576040517f08c379a000000000000000000000000000000000000000000000000000000000815260040161149090612109565b60405180910390fd5b6114a4838383611971565b60008060008573ffffffffffffffffffffffffffffffffffffffff1673ffffffffffffffffffffffffffffffffffffffff1681526020019081526020016000205490508181101561152a576040517f08c379a000000000000000000000000000000000000000000000000000000000815260040161152190612169565b60405180910390fd5b8181036000808673ffffffffffffffffffffffffffffffffffffffff1673ffffffffffffffffffffffffffffffffffffffff16815260200190815260200160002081905550816000808573ffffffffffffffffffffffffffffffffffffffff1673ffffffffffffffffffffffffffffffffffffffff16815260200190815260200160002060008282546115bd91906122bb565b925050819055508273ffffffffffffffffffffffffffffffffffffffff168473ffffffffffffffffffffffffffffffffffffffff167fddf252ad1be2c89b69c2b068fc378daa952ba7f163c4a11628f55a4df523b3ef846040516116219190612269565b60405180910390a3611634848484611976565b50505050565b600073ffffffffffffffffffffffffffffffffffffffff168273ffffffffffffffffffffffffffffffffffffffff1614156116aa576040517f08c379a00000000000000000000000000000000000000000000000000000000081526004016116a1906121a9565b60405180910390fd5b6116b682600083611971565b60008060008473ffffffffffffffffffffffffffffffffffffffff1673ffffffffffffffffffffffffffffffffffffffff1681526020019081526020016000205490508181101561173c576040517f08c379a000000000000000000000000000000000000000000000000000000000815260040161173390612129565b60405180910390fd5b8181036000808573ffffffffffffffffffffffffffffffffffffffff1673ffffffffffffffffffffffffffffffffffffffff168152602001908152602001600020819055508160026000828254611793919061239c565b92505081905550600073ffffffffffffffffffffffffffffffffffffffff168373ffffffffffffffffffffffffffffffffffffffff167fddf252ad1be2c89b69c2b068fc378daa952ba7f163c4a11628f55a4df523b3ef846040516117f89190612269565b60405180910390a361180c83600084611976565b505050565b600073ffffffffffffffffffffffffffffffffffffffff168273ffffffffffffffffffffffffffffffffffffffff161415611881576040517f08c379a000000000000000000000000000000000000000000000000000000000815260040161187890612249565b60405180910390fd5b61188d60008383611971565b806002600082825461189f91906122bb565b92505081905550806000808473ffffffffffffffffffffffffffffffffffffffff1673ffffffffffffffffffffffffffffffffffffffff16815260200190815260200160002060008282546118f491906122bb565b925050819055508173ffffffffffffffffffffffffffffffffffffffff16600073ffffffffffffffffffffffffffffffffffffffff167fddf252ad1be2c89b69c2b068fc378daa952ba7f163c4a11628f55a4df523b3ef836040516119599190612269565b60405180910390a361196d60008383611976565b5050565b505050565b505050565b60008135905061198a8161254c565b92915050565b60008151905061199f81612563565b92915050565b6000813590506119b48161257a565b92915050565b6000815190506119c98161257a565b92915050565b6000602082840312156119e157600080fd5b60006119ef8482850161197b565b91505092915050565b60008060408385031215611a0b57600080fd5b6000611a198582860161197b565b9250506020611a2a8582860161197b565b9150509250929050565b600080600060608486031215611a4957600080fd5b6000611a578682870161197b565b9350506020611a688682870161197b565b9250506040611a79868287016119a5565b9150509250925092565b60008060408385031215611a9657600080fd5b6000611aa48582860161197b565b9250506020611ab5858286016119a5565b9150509250929050565b600060208284031215611ad157600080fd5b6000611adf84828501611990565b91505092915050565b600060208284031215611afa57600080fd5b6000611b08848285016119ba565b91505092915050565b60008060408385031215611b2457600080fd5b6000611b32858286016119a5565b9250506020611b438582860161197b565b9150509250929050565b600080600060608486031215611b6257600080fd5b6000611b70868287016119a5565b9350506020611b818682870161197b565b9250506040611b92868287016119a5565b9150509250925092565b611ba5816123d0565b82525050565b611bb4816123e2565b82525050565b611bc381612425565b82525050565b6000611bd48261229f565b611bde81856122aa565b9350611bee818560208601612449565b611bf78161253b565b840191505092915050565b6000611c0f6023836122aa565b91507f45524332303a207472616e7366657220746f20746865207a65726f206164647260008301527f65737300000000000000000000000000000000000000000000000000000000006020830152604082019050919050565b6000611c756022836122aa565b91507f45524332303a206275726e20616d6f756e7420657863656564732062616c616e60008301527f63650000000000000000000000000000000000000000000000000000000000006020830152604082019050919050565b6000611cdb6022836122aa565b91507f45524332303a20617070726f766520746f20746865207a65726f20616464726560008301527f73730000000000000000000000000000000000000000000000000000000000006020830152604082019050919050565b6000611d416026836122aa565b91507f45524332303a207472616e7366657220616d6f756e742065786365656473206260008301527f616c616e636500000000000000000000000000000000000000000000000000006020830152604082019050919050565b6000611da76028836122aa565b91507f45524332303a207472616e7366657220616d6f756e742065786365656473206160008301527f6c6c6f77616e63650000000000000000000000000000000000000000000000006020830152604082019050919050565b6000611e0d6021836122aa565b91507f45524332303a206275726e2066726f6d20746865207a65726f2061646472657360008301527f73000000000000000000000000000000000000000000000000000000000000006020830152604082019050919050565b6000611e736025836122aa565b91507f45524332303a207472616e736665722066726f6d20746865207a65726f20616460008301527f64726573730000000000000000000000000000000000000000000000000000006020830152604082019050919050565b6000611ed96024836122aa565b91507f45524332303a20617070726f76652066726f6d20746865207a65726f2061646460008301527f72657373000000000000000000000000000000000000000000000000000000006020830152604082019050919050565b6000611f3f601a836122aa565b91507f616d6f756e74206e656564206265796f6e6420746865206d696e0000000000006000830152602082019050919050565b6000611f7f6025836122aa565b91507f45524332303a2064656372656173656420616c6c6f77616e63652062656c6f7760008301527f207a65726f0000000000000000000000000000000000000000000000000000006020830152604082019050919050565b6000611fe5601f836122aa565b91507f45524332303a206d696e7420746f20746865207a65726f2061646472657373006000830152602082019050919050565b6120218161240e565b82525050565b61203081612418565b82525050565b600060208201905061204b6000830184611b9c565b92915050565b60006060820190506120666000830186611b9c565b6120736020830185611b9c565b6120806040830184612018565b949350505050565b600060408201905061209d6000830185611b9c565b6120aa6020830184612018565b9392505050565b60006020820190506120c66000830184611bab565b92915050565b60006020820190506120e16000830184611bba565b92915050565b600060208201905081810360008301526121018184611bc9565b905092915050565b6000602082019050818103600083015261212281611c02565b9050919050565b6000602082019050818103600083015261214281611c68565b9050919050565b6000602082019050818103600083015261216281611cce565b9050919050565b6000602082019050818103600083015261218281611d34565b9050919050565b600060208201905081810360008301526121a281611d9a565b9050919050565b600060208201905081810360008301526121c281611e00565b9050919050565b600060208201905081810360008301526121e281611e66565b9050919050565b6000602082019050818103600083015261220281611ecc565b9050919050565b6000602082019050818103600083015261222281611f32565b9050919050565b6000602082019050818103600083015261224281611f72565b9050919050565b6000602082019050818103600083015261226281611fd8565b9050919050565b600060208201905061227e6000830184612018565b92915050565b60006020820190506122996000830184612027565b92915050565b600081519050919050565b600082825260208201905092915050565b60006122c68261240e565b91506122d18361240e565b9250827fffffffffffffffffffffffffffffffffffffffffffffffffffffffffffffffff03821115612306576123056124ae565b5b828201905092915050565b600061231c8261240e565b91506123278361240e565b925082612337576123366124dd565b5b828204905092915050565b600061234d8261240e565b91506123588361240e565b9250817fffffffffffffffffffffffffffffffffffffffffffffffffffffffffffffffff0483118215151615612391576123906124ae565b5b828202905092915050565b60006123a78261240e565b91506123b28361240e565b9250828210156123c5576123c46124ae565b5b828203905092915050565b60006123db826123ee565b9050919050565b60008115159050919050565b600073ffffffffffffffffffffffffffffffffffffffff82169050919050565b6000819050919050565b600060ff82169050919050565b600061243082612437565b9050919050565b6000612442826123ee565b9050919050565b60005b8381101561246757808201518184015260208101905061244c565b83811115612476576000848401525b50505050565b6000600282049050600182168061249457607f821691505b602082108114156124a8576124a761250c565b5b50919050565b7f4e487b7100000000000000000000000000000000000000000000000000000000600052601160045260246000fd5b7f4e487b7100000000000000000000000000000000000000000000000000000000600052601260045260246000fd5b7f4e487b7100000000000000000000000000000000000000000000000000000000600052602260045260246000fd5b6000601f19601f8301169050919050565b612555816123d0565b811461256057600080fd5b50565b61256c816123e2565b811461257757600080fd5b50565b6125838161240e565b811461258e57600080fd5b5056fea264697066735822122064422e12ac5d8493f298312a80a49e8ea392822faeea010ec579c862b179b20d64736f6c63430008000033",
  "immutableReferences": {},
  "source": "// SPDX-License-Identifier: Apache-2.0\r\npragma solidity ^0.8.0;\r\n\r\nimport \"@openzeppelin/contracts/token/ERC20/ERC20.sol\";\r\n\r\ncontract Vault is ERC20 {\r\n    ERC20 public token ;\r\n    address public addr;\r\n    mapping(address => uint256) private _balances;\r\n\r\n    mapping(address => mapping(address => uint256)) private _allowances;\r\n\r\n    constructor(address _underlyTokenAddr) \r\n        ERC20(\r\n            string(abi.encodePacked(\"x\", ERC20(_underlyTokenAddr).name())),\r\n            string(abi.encodePacked(\"x\", ERC20(_underlyTokenAddr).symbol()))\r\n        ) \r\n    { \r\n        addr = _underlyTokenAddr;\r\n        token = ERC20(addr);\r\n    }\r\n\r\n    function setAddr(address _underlyTokenAddr) public {    //underlyToken\r\n        addr = _underlyTokenAddr;\r\n        token = ERC20(addr);\r\n    }\r\n\r\n    function deposit(uint256 _amount, address recipient) public returns (uint256){\r\n        uint256 _pool = token.balanceOf(address(this));\r\n        uint256 _before = token.balanceOf(address(this));\r\n\r\n        token.transferFrom(msg.sender, address(this), _amount);\r\n\r\n        uint256 _after = token.balanceOf(address(this));\r\n        _amount = _after - _before;\r\n        uint256 shares = 0;\r\n        if (totalSupply() == 0) {\r\n            shares = _amount;\r\n        } else {\r\n            shares = _amount * totalSupply() / _pool;\r\n        }\r\n        _mint(recipient, shares);\r\n\r\n        return shares;\r\n    }\r\n\r\n    function _withdraw(\r\n        uint256 _shares,\r\n        address _destination,\r\n        uint256 _minUnderlying\r\n    ) public returns (uint256){\r\n        uint256 amount = token.balanceOf(address(this)) * _shares / totalSupply();\r\n        require(amount > _minUnderlying, \"amount need beyond the min\");\r\n        _burn(msg.sender, _shares);\r\n\r\n        // Check balance\r\n        uint256 b = token.balanceOf(address(this));\r\n        if (b < amount) {\r\n            //token.transfer(msg.sender, amount);\r\n            token.transfer(_destination, amount);\r\n        }\r\n\r\n        //token.transfer(msg.sender, amount);\r\n        token.transfer(_destination, amount);\r\n        return amount;\r\n    }\r\n\r\n    // // Returns the amount of underlying per each unit [1e18] of yearn shares\r\n    function pricePerShare() public view returns (uint256){\r\n        return token.balanceOf(address(this)) * 1e18 / totalSupply();\r\n    }\r\n\r\n    // function governance() external view returns (address);\r\n\r\n    // function setDepositLimit(uint256) external;\r\n\r\n    // function totalSupply() external view returns (uint256);\r\n\r\n    function totalAssets() public view returns (uint256) {\r\n        return token.balanceOf(address(this));\r\n    }\r\n\r\n    function apiVersion() public view returns (string memory) {\r\n        return \"0.3.5\";\r\n    }\r\n}",
  "sourcePath": "/f/BlockChain/conflux/contract/Lfi-Vault/contracts/Vault.sol",
  "compiler": {
    "name": "solc",
    "version": "0.8.0+commit.c7dfd78e.Emscripten.clang"
  },
  "schemaVersion": "3.3.4",
  "updatedAt": "2021-08-30T06:42:06.627Z",
  "devdoc": {
    "kind": "dev",
    "methods": {
      "allowance(address,address)": {
        "details": "See {IERC20-allowance}."
      },
      "approve(address,uint256)": {
        "details": "See {IERC20-approve}. Requirements: - `spender` cannot be the zero address."
      },
      "balanceOf(address)": {
        "details": "See {IERC20-balanceOf}."
      },
      "decimals()": {
        "details": "Returns the number of decimals used to get its user representation. For example, if `decimals` equals `2`, a balance of `505` tokens should be displayed to a user as `5,05` (`505 / 10 ** 2`). Tokens usually opt for a value of 18, imitating the relationship between Ether and Wei. This is the value {ERC20} uses, unless this function is overridden; NOTE: This information is only used for _display_ purposes: it in no way affects any of the arithmetic of the contract, including {IERC20-balanceOf} and {IERC20-transfer}."
      },
      "decreaseAllowance(address,uint256)": {
        "details": "Atomically decreases the allowance granted to `spender` by the caller. This is an alternative to {approve} that can be used as a mitigation for problems described in {IERC20-approve}. Emits an {Approval} event indicating the updated allowance. Requirements: - `spender` cannot be the zero address. - `spender` must have allowance for the caller of at least `subtractedValue`."
      },
      "increaseAllowance(address,uint256)": {
        "details": "Atomically increases the allowance granted to `spender` by the caller. This is an alternative to {approve} that can be used as a mitigation for problems described in {IERC20-approve}. Emits an {Approval} event indicating the updated allowance. Requirements: - `spender` cannot be the zero address."
      },
      "name()": {
        "details": "Returns the name of the token."
      },
      "symbol()": {
        "details": "Returns the symbol of the token, usually a shorter version of the name."
      },
      "totalSupply()": {
        "details": "See {IERC20-totalSupply}."
      },
      "transfer(address,uint256)": {
        "details": "See {IERC20-transfer}. Requirements: - `recipient` cannot be the zero address. - the caller must have a balance of at least `amount`."
      },
      "transferFrom(address,address,uint256)": {
        "details": "See {IERC20-transferFrom}. Emits an {Approval} event indicating the updated allowance. This is not required by the EIP. See the note at the beginning of {ERC20}. Requirements: - `sender` and `recipient` cannot be the zero address. - `sender` must have a balance of at least `amount`. - the caller must have allowance for ``sender``'s tokens of at least `amount`."
      }
    },
    "version": 1
  },
  "userdoc": {
    "kind": "user",
    "methods": {},
    "version": 1
  }
}